:020000040800F2
:10000000904D002045030008D5460008F143000844
:10001000D146000865170008798E0008000000002E
:1000200000000000000000000000000099640008CB
:100030000518000800000000D15200089D64000867
:100040005F0300085F0300085F0300085F03000808
:100050005F0300085F0300085F0300085F030008F8
:10006000211800085F030008291800085F03000832
:100070005F0300085F0300085F0300085F030008D8
:100080005F0300085F0300085F0300080000000032
:100090000000000000000000000000005F030008F6
:1000A0005F0300085D6500085F0300085F03000848
:1000B0005F0300085F0300085F0300085F03000898
:1000C0005F0300085F0300085F0300085F03000888
:1000D0005F0300085F0300085F03000800000000E2
:1000E000091800085F0300085F0300080000000013
:1000F0000000000000000000000000005F03000896
:10010000000000005F0300085F0300085F030008B1
:1001100000000000000000000000000000000000DF
:100120005F0300085F0300085F0300085F03000827
:100130005F03000800000000000000000000000055
:10014000000000000000000000000000C552000890
:100150005F0300085F0300085F0300085F030008F7
:100160005F0300085F0300080000000000000000BB
:10017000000000000000000000000000000000007F
:10018000000000005F030008000000000000000005
:100190005F03000800F002F800F0AAF814A696E841
:1001A000000CB244B344DA4501D100F0A1F8BAE83A
:1001B0000F000FA696E83000A5EB040504EB060738
:1001C000AAEB0704A7F101074FEA15154FEA34140B
:1001D000A4F10104AC4201D300F08AF813F0010F3E
:1001E00018BFFB1A43F0010300F001F8DBE71847E2
:1001F000C89E0000E89E0000103A24BF78C878C16D
:10020000FAD8520724BF30C830C144BF04680C601C
:1002100070470000704700000023002400250026DE
:10022000103A28BF78C1FBD8520728BF30C148BF59
:100230000B6070476E2900F0CD82702900F00F84AA
:10024000662909F0A485652909F0A185672909F0C7
:100250009E85612909F09D8503681B0A28BF41F02E
:100260008001692900F07A82642900F0778275297B
:1002700000F074826F2900F09D83782900F0DB8301
:10028000E92900F03783E42900F03483F52900F0F0
:100290003183EF2900F09A83F82900F0DA830368AC
:1002A000DB0928BF41F08001632901F0DB8073295D
:1002B00001F0E080E32901F0EB80F32901F0F08008
:1002C000002070471FB509F055FD00F0FAF801F065
:1002D0003DF904000020002109F036FD401C60605B
:1002E0000020002109F01AFDE0601FBD10B510BD0F
:1002F00001F0FEF81146FFF7E5FF09F065F801F09F
:10030000DBF903B4FFF7F2FF03BC01F023FA0000AE
:100310000B49D1F800C04A685CF8043B10681844E7
:1003200042F8040B8C4528BFA1F1DC0C8A4228BF9F
:10033000A1F1DC02C1F800C04A6020F00040704723
:10034000FC0100200948804709480047FEE7FEE716
:10035000FEE7FEE7FEE7FEE7FEE7FEE7FEE7FEE775
:1003600004480549054A064B7047000049650008E6
:100370009501000890430020904D002090470020F8
:100380009047002053EA020C00F069802DE9F04B01
:100390004FF00006002B1FBFB3FA83F503FA05F4F4
:1003A00024FA05F65E4012BF1643B2FA82F502FA4D
:1003B00005F4C5F120051EBF22FA05FC44EA0C0431
:1003C000203556EA044C4FEA144418BF641C4FF021
:1003D00000084FF00009904271EB030C39D300295B
:1003E00019BFB1FA81F701FA07F6B0FA80F700FAFF
:1003F00007F6C7F120071EBF20FA07FC46EA0C06E5
:100400002037B6FBF4FCA7EB0507103F07F01F0BE6
:10041000CBF120062CFA06F60CFA0BFB44BFB346D0
:100420000026202FA4BF5E464FF0000B5BEA060CAF
:1004300008BF4FF0010B19EB0B0948EB0608ABFBAB
:10044000027C06FB02CC0BFB03CCC01B71EB0C0146
:10045000C1E70B46024641464846BDE8F08B13B55E
:10046000084318BF4FF0FF300146AFF30080BDE8EE
:100470001C4070471CB50C46064B7B4469460090F7
:10048000204600F0C0F904460020694600F0CEF98D
:1004900020461CBDAF0300000B4910B5A1F17C0242
:1004A0000A4CC2E93712372106E000EB104342F84C
:1004B0002130074B00FB03400B1EA1F10101F4DCCE
:1004C00010BD0120E8E700009C010020E119D6667C
:1004D000CD0D010010B5431C02E010F8011B71B1F5
:1004E0008107FAD14FF0013202C88C1A8C4314EA0A
:1004F000C211F9D0C01A0A0603D0C01E10BDC01A1E
:1005000010BD0A0401D0801E10BD0902FCD0401E9F
:1005100010BD032A40F2308010F0030C00F015806B
:1005200011F8013BBCF1020F624498BF11F801CBF6
:1005300000F8013B38BF11F8013BA2F1040298BF5B
:1005400000F801CB38BF00F8013B11F0030300F0C5
:100550002580083AC0F0088051F8043B083A51F869
:1005600004CBA0E80810F5E7121D5CBF51F8043B6E
:1005700040F8043BAFF30080D20724BF11F8013BE1
:1005800011F801CB48BF11F8012B24BF00F8013B43
:1005900000F801CB48BF00F8012B704710B5203A96
:1005A000C0F00B80B1E81850A0E81850B1E818501E
:1005B000A0E81850203ABFF4F5AF5FEA027C24BFF0
:1005C000B1E81850A0E8185044BF18C918C0BDE8D9
:1005D00010405FEA827C24BF51F8043B40F8043BA2
:1005E00008BF7047D20728BF31F8023B48BF11F857
:1005F000012B28BF20F8023B48BF00F8012B7047B1
:100600004FF000020429C0F0128010F0030C00F03B
:100610001B80CCF1040CBCF1020F18BF00F8012BB9
:10062000A8BF20F8022BA1EB0C0100F00DB85FEA87
:10063000C17C24BF00F8012B00F8012B48BF00F853
:10064000012B70474FF0000200B5134694469646C2
:10065000203922BFA0E80C50A0E80C50B1F12001D5
:10066000BFF4F7AF090728BFA0E80C5048BF0CC083
:100670005DF804EB890028BF40F8042B08BF7047E1
:1006800048BF20F8022B11F0804F18BF00F8012B53
:10069000704770477047704770B5044685690068B9
:1006A000C10601D5302600E02026C00707D070BD66
:1006B000D4E9012130469047206A401C20626D1E1B
:1006C000F6D570BD70B5044685690078C00707D1BE
:1006D00070BDD4E9012120209047206A401C20628F
:1006E0006D1EF6D570BD09684A0501D540B2704748
:1006F000C905FCD500B2704709684A0501D5C0B2EA
:100700007047C905FCD580B2704770B50C460546E8
:10071000012A05D02878800600D5EA69002302E086
:10072000012305E05B1C934202D2E05C0028F9D172
:10073000A869E618C01AA861286A184428622846E1
:10074000FFF7AAFF04E0D5E9012114F8010B904757
:10075000B442F8D32846FFF7B5FF70BD2DE9F0414C
:100760000646002410687529314616A510D0FFF7FB
:10077000BAFF002802DA404213A507E031688A0771
:1007800001D512A502E0490704D511A5012401E015
:10079000FFF7B2FF00210A2206F1240709E0B0FBAF
:1007A000F2FCB0FBF2F302FB1C0030307854184628
:1007B000491C0028F3D123462A463046BDE8F041C3
:1007C00000F061BA000000002D0000002B000000C6
:1007D0002000000011680268006A530501D5087006
:1007E0000AE0D30501D5088006E0130603D5C21739
:1007F000C1E9000200E008600120704701694A1C5D
:1008000002610878704700B58FB0CDE90131002151
:10081000059105497944CDE903101146684600F079
:1008200029F90FB000BD0000E5FFFFFF0A6802F8DC
:10083000010B0A60704700002DE9FF5F15468A46EC
:100840000446DFF8AC80F8440027D8E900103E46A3
:10085000CDE9001010E03AF816106A4602A800F040
:1008600023FE411C07D02178890603D5E269391897
:1008700091420DD80744761C2078800602D5E069A5
:10088000B84205DDAE42E6DB3AF816000028E2D1B8
:10089000A069C01BA0612046FFF7FEFED8E900104A
:1008A000CDE90010002017E03AF818106A4602A8B7
:1008B00000F0FAFDB0F1FF3F81460BD000250DF1AD
:1008C000080B05E0D4E901211BF8050090476D1CD9
:1008D0004D45F7D308F10100B0428046E4DB206AC1
:1008E000384420622046FFF7EDFEBDE8FF9F000080
:1008F0004E9500002DE9F0418046D21D22F00702FE
:100900000025D2E90002F52915A614D0011E72F1C6
:10091000000106DA0023D0EB030063EB020211A60C
:1009200008E0D8F800108B0701D50FA602E04907B0
:1009300001D50EA601251146002408F1240704E084
:1009400000F05CF930323A55641C50EA0102F7D1EC
:100950002B46324621464046BDE8F04100F093B9AF
:10096000000000002D0000002B000000200000000F
:1009700030B4002100F1240408E002F00705D20899
:10098000303542EA4372DB086554491C52EA0305DC
:10099000F3D10468002310A2250708D504F0200431
:1009A0000C4304D0C46901230CA2641EC46130BC92
:1009B00000F069B910B5044621461068FFF79CFEA7
:1009C00002462046BDE810400023D1E7D21D22F0A8
:1009D0000701D1E90023CBE7000000003000000050
:1009E000F0B40D460188090502D5214C7C4402E093
:1009F0001F4C7C440E34002100F1240608E002F074
:100A00000F071209E75D42EA03721B097754491C7C
:100A100052EA0307F3D102780023120704D5702DA0
:100A200006D009B1022311342246F0BC00F02BB9E4
:100A300001231034F8E770B504460D4621461068CE
:100A4000FFF75AFE024629462046BDE870400023C3
:100A5000C6E7D21D22F00703D3E90023C0E70368ED
:100A6000126843F0200303600823C3610023B7E743
:100A7000B09300002DE9F05F894604464FF0000A6C
:100A8000DFF874B1FB44C0F820A02046E168884735
:100A9000002874D0252806D0D4E901219047206A87
:100AA000401C2062F1E700265F462046E168884747
:100AB0002028054607DB312D05D2781910F8200CC7
:100AC00008B10643F1E7B00701D526F00406C4F8E3
:100AD0001CA00027C4F818A02A2D09D0284609F028
:100AE00015F938B304EB8708303DC8F8185019E001
:100AF00059F8041B204604EB87029161E16888479E
:100B0000012F054618D1E069002820DA26F02006DA
:100B10001DE0D8F8180000EB800005EB40003038ED
:100B2000C8F818002046E1688847054609F0EEF845
:100B30000028EED1012F0AD02E2D08D12046E168E1
:100B400088477F1C0546022F46F02006C4DBA069BB
:100B5000002803DA404246F00106A061F00701D008
:100B600026F010066C2D0BD0682D09D04C2D39D0F5
:100B70006A2D35D0742D35D07A2D33D016E038E07B
:100B8000E1682F4620468847B842054609D16C2FB8
:100B900026D04FF48060E16806432046884705462A
:100BA00004E06C2F1AD04FF4807006430DB3A5F10A
:100BB0004100192802D8203546F400664A462946E5
:100BC000204626604E46FFF735FB80B101280BD04A
:100BD000F61D26F0070000F1080956E74020E4E77B
:100BE0008020D8E70020D6E706F104094DE7284623
:100BF00052E7206ABDE8F09F4093000030B5B0F1A5
:100C00000A0271F100034FEA900E4EEA817EB0EBCA
:100C10000E0061EB91014FEA101E4EEA017E10EBCF
:100C20000E0041EB11114FEA102E4EEA016E10EB4F
:100C30000E0041EB11214FEA104E4EEA014E10EB2F
:100C40000E0041EB1141401841F100014FEAD00084
:100C500040EA41704FEAD1014FEA810444EA9074BE
:100C600010EB800544EB01046D1944EB0404521BA6
:100C7000A3414FF0000348BF0A3200D530BD401CED
:100C800041F1000130BD2DE9F0470D4699469246ED
:100C9000044600F124080168880604D5E06921F0C3
:100CA0001001216000E00120A84201DD471B00E0A7
:100CB0000027A1697A1902EB0900081AA0612078BF
:100CC000C00602D42046FFF7E7FC002608E0D4E97E
:100CD00001211AF806009047206A401C761C206209
:100CE0004E45F4DB2078C0060AD52046FFF7D4FC39
:100CF00006E0D4E9012130209047206A401C2062A0
:100D0000381EA7F10107F4DC07E0D4E9012118F847
:100D100005009047206A401C2062281EA5F10105AD
:100D2000F3DC2046FFF7CEFC2078000602D5022037
:100D3000BDE8F0870120FBE72DE9FF4F0C461E467A
:100D40004FF0FF378BB0D2E90001DDF860800A90E8
:100D50008A46C1F30A5505B93D46002108464FF0C1
:100D60000000BAF1000F00F4400005DA00EB80004B
:100D70004FF4400101EA50004FEA9059B9F1010FD8
:100D800000DDB9460A9850EA4A000ED044F61050E9
:100D9000A5F2FF3545432F14B8F1000F1ED0754260
:100DA000291E1EDDC9F100021CE0B8F1010F4FF051
:100DB000000001D0302103E0F24305E02154401C43
:100DC000B042FBDB30460022002121540B99C1F8D0
:100DD0000880C1E900200FB0BDE8F08FBD1B6D1C7D
:100DE000DEE74A4600DA694206A800F0F3FB06ABEC
:100DF00093E8070003AB83E8070050460A9908F020
:100E0000A5FB8DE80700A0F500501F38009003985F
:100E1000002D0ADD42F21F014A460844002303A9BF
:100E20000390684608F00EFE09E0A0F500504A461F
:100E30001F38002303A90390684608F018FE8DE8C8
:100E400007000004000C03D04FF0FF30410800E021
:100E50001046B8F1000F03D00022009215461EE0A4
:100E6000751E05D4FFF7CAFE303262556D1EF9D5E6
:100E7000B3460122084302D000227F1C04E0207800
:100E8000302801D100227F1E002A099784D01DE05E
:100E9000112D07DAFFF7B2FE303262556D1C50EAB1
:100EA0000102F5D1084302D00098C8B10EE000213C
:100EB000681E05E0235C625C63542254401E491C9A
:100EC0008142F7DBAB46A81B401E0990002004F8C6
:100ED0000B000B98099AC0F80880C0E9002B7AE74C
:100EE00011264FF0000857E72DE9F04F88460446D9
:100EF000D21D22F0070191B0D1E90001CDE90A012C
:100F000008F0ECFE02460B98C00F01D02D2007E040
:100F10002068810701D52B2002E0202101EAC000D2
:100F2000032A099001D0072A05DB034641462046E3
:100F300000F010FB0BE12078800601D5E06900E0AD
:100F40000620B8F1650F814606D0B8F1660F18D0BB
:100F5000B8F1670F70D131E00020B9F1110F0090A6
:100F600001DB112301E009F101030AAA01A90CA880
:100F7000FFF7E2FEDDE90C70002609F1010583466A
:100F800047E001204B4600904FF000470AAA01A914
:100F90000CA8FFF7D1FEDDE90DB00C995D460026E7
:100FA00010B909F101000D18B9EB050003D4C0F127
:100FB000FF3609F10105A5EB09002BE0B9F1010F9E
:100FC00001DA4FF001090020B9F1110F00904846F5
:100FD00001DD112300E003460AAA01A90CA8FFF7CE
:100FE000ABFEDDE90C704D460026834620780007F5
:100FF0000AD4AB4500DA5D4601A8012D04DD411994
:1010000011F8011C302907D04F4502DA17F1040FFF
:1010100004DA012082460FE06D1EEEE7002F02DCAD
:10102000ED1B3E4403E0781CA84200DD7D1CB81B8C
:1010300000F1010A4FF000472078000703D4AA45C9
:1010400001DB4FF0FF3A0021B7F1004F0DF14308EB
:101050008DF8431024D002202B23002F01DA7F4289
:101060002D230A21021EA0F1010000DC5FB197FBD5
:10107000F1FC97FBF1F201FB1C7C17460CF1300CE4
:1010800008F801CDEEE7A8F10100037021880905F9
:1010900001D5452100E06521A0F1010800F8011CFF
:1010A00009980FA9A1EB0807FF1D00B10120411904
:1010B00001EBEA70A1693844081A401EA06120784B
:1010C000C00602D42046FFF7E7FA099828B1D4E910
:1010D00001219047206A401C20622078C00622D55A
:1010E0002046FFF7D9FA1EE0002E04DBB34502DDEF
:1010F00001A8805D00E03020D4E901219047206AFA
:10110000401C2062761CAAF101005FEA000A0AD1A5
:1011100000F01CFAC0680168405CD4E901219047E6
:10112000206A401C2062281EA5F10105DCDC07E0D6
:10113000D4E9012118F8010B9047206A401C206275
:10114000381EA7F10107F3DC2046FFF7BBFA0320A6
:1011500011B041E62DE9F04F04460D46D21D22F0B4
:10116000070089B0D0E900974846394608F0B6FD37
:101170000246F80F01D02D2307E02068810701D532
:101180002B2302E0202101EAC0038DF820300BB1AF
:10119000012000E00020032A824601D0072A04DB58
:1011A0002946204600F0D6F93FE12078800601D498
:1011B0000D2500E0E569C7F30A560D2D49DA002137
:1011C0004FEA175B08464FF00000002F00F4400084
:1011D00007DA00EB80004FF4400100EBD07001EA29
:1011E00060008115012901DD4FF0FF3100224FEA37
:1011F000850CBCF1180F06D31346ACF118004FF064
:101200008052C24003E04FF4801323FA0CF30CF138
:101210000C0CBCF1200F04D3ACF1200C09FA0CF03B
:1012200001E007FA0CF000294FF0004801DD18B981
:101230000FE00ED140450CD319EB02095F4121B9F3
:10124000404502D19F4329EA0209BBEB175F00D05A
:10125000761C2088000502D57B48784402E07A4855
:101260007844193808AA302302F80A30037C0AF1BE
:101270000101002E0AF1020A53546A4602DC4FF0C3
:10128000300101E04FF031014FF001088DF80010FE
:1012900002D0A6F2FF3603E059EA470100D06B4EB8
:1012A000002D02DC2178090704D54FF002082E2119
:1012B0008DF80110C44600210BE0C7F303433F0142
:1012C000C35C491C6D1E02F80830052908F10108AD
:1012D00001DA002DF1DC00210CE000EB1973491C50
:1012E0001B786D1E082902F808304FEA091908F129
:1012F000010801DA002DF0DC21688B0602D516E02A
:10130000A8F10108E04505DD02EB080313F8013CF4
:10131000302BF5D0B8F1000F09DD02EB080313F80C
:10132000013C2E2B03D1090701D4A8F10108002D9F
:1013300005DD3E2102F808106D1E08F10108407C11
:10134000002E02F8080008F1010804DA2D20764288
:1013500002F8080002E02B2002F808000A214FF4EE
:101360007A70864208F101080BDB96FBF0F330330C
:1013700002F8083096FBF0F308F1010800FB136651
:1013800001E0642E0CDB642096FBF0F3303302F8AE
:10139000083096FBF0F308F1010800FB136601E04A
:1013A0000A2E06DB96FBF1F0303002F8080008F157
:1013B000010896FBF1F001FB1060303002F80800E4
:1013C000A16908F1010808EB050202EB0A00081AFE
:1013D000A0612078C00602D42046FFF75DF9216A9B
:1013E00008AE01EB0A00206204E0D4E9012116F8FE
:1013F000010B9047BAF1010AF7D22078C00602D556
:101400002046FFF749F96E4609E016F8010B3E2821
:101410000FD0D4E901219047206A401C2062B8F126
:101420000108F2D22046FFF74DF909B00320BDE8CC
:10143000F08F206A2844206203E0D4E901213020A3
:1014400090476D1EEBD3F8E78E8B000002FCFFFF88
:1014500010B5436913B1AFF3008001E0FFF755F910
:10146000012010BD127800F124010A7000224A7098
:101470000122EDE711684FF0FF32E9E710B543694B
:1014800013B1AFF3008001E0FFF7D6F9012010BDE2
:10149000128800F1240182840022C2840122EDE737
:1014A00011684FF0FF32E9E72DE9F04116460C468E
:1014B000054600F043F8036893F80101012807D0BE
:1014C000FF2C12D8185D80B101202C70BDE8F0818E
:1014D000D3F807013246214603F20713C7182846FE
:1014E000BC46BDE8F041002360474FF0FF30EDE718
:1014F000754600F0EBF8AE4605006946534620F00D
:101500000700854618B020B5FEF72AFFBDE8204049
:101510004FF000064FF000074FF000084FF0000BAF
:10152000AC46ACE8C009ACE8C009ACE8C009ACE81E
:10153000C00921F007018D467047000010B500F08A
:1015400005F8001D10BD00BF01880000004870476D
:10155000240200202DE9F0411F46044603260168BD
:10156000072A01F4006004DB08B116A505E016A502
:1015700003E008B115A500E015A521F010002060DA
:10158000A069C01EA0610FB1401EA0612046FFF7F8
:1015900083F84FB1D4E9012138469047206A401CB6
:1015A0002062C01C206206E0206AFAE7D4E901212B
:1015B00015F8010B9047761EF8D22046FFF782F807
:1015C000BDE8F0814E414E006E616E00494E46000E
:1015D000696E66002DE9F047814616468AB03548A7
:1015E00078440DC88DE80D0032487844801C03AC67
:1015F0000DC884E80D0041F69B300844372190FB6C
:10160000F1F290FBF1F5A5F1800501FB12041B3C02
:1016100002D56442012000E00020DFF898A0804657
:101620000027FA44AAF1BE0A0EE0E0070AD03246CB
:10163000684607EB470101230AEB810108F017FA1E
:101640008DE8070064107F1C002CEED1194F7F44F9
:10165000AE3F19E0E80715D007EB04100DF1180AAA
:1016600090E80E008AE80E00C068F04201D1981997
:1016700008903246012306A903A808F0F8F903AB45
:1016800083E807006D10641C002DE3D14FF00103C7
:1016900032466946B8F1000F03A802D008F0D2F92B
:1016A00001E008F0E4F9C9E90001C9F808200AB02E
:1016B000BDE8F0879888000010B50446AFF30080BD
:1016C0002046BDE81040FEF71CBE000000487047F1
:1016D000040200200000000030B44FF0013C50F83C
:1016E000042B51F8043BCCFA52F4D51A20D1FCB9A2
:1016F00050F8042B51F8043BCCFA52F4D51A17D108
:10170000B4B950F8042B51F8043BCCFA52F4D51A72
:101710000ED16CB950F8042B51F8043BCCFA52F4BA
:10172000D51A05D1002CDAD030BC4FF0000070473C
:1017300029BAB1FA81F111F01801D1F120008440E9
:10174000F2D1CA40CB4012F0FF0213F0FF0330BCCD
:10175000D01A704701491820ABBEFEE726000200F0
:1017600070470000FEE7000000207047002070472F
:1017700010B541F6C824C2F2000440F6A821C2F216
:1017800000012046002205F039F940F2A861C2F2BA
:101790000001204605F024F9002010BDB0B509680D
:1017A000044607F0B1FC41F6C825C2F20005284600
:1017B000214605F015F9284605F0ECF80020B0BDEB
:1017C00080B507F0D1FA002080BD000041F6C822A4
:1017D000C2F20002D2F8BC22D2F81432002B1CBF95
:1017E0000120704710B541F6C824C2F200040A4631
:1017F0000146204605F002F92046BDE8104005F0FC
:1018000085B900007047000080B54FF4005000F02B
:1018100047FA4FF40040BDE8804000F041BA0000B4
:10182000042000F03DBA0000102000F039BA00009A
:1018300072B600BFFEE70000F0B581B040F2FC07D1
:10184000044643F60C46C2F200070020C4F202062A
:10185000F86100F007FB3168C9031DD43068C00788
:101860001CBF01203060306810F4F97F30D0306840
:10187000C00635D4306880063BD43068400641D479
:101880003068000647D43068C0054DD43068800702
:1018900054D4012001B0F0BDF4B10546601C0DD157
:1018A0003068C003DAD53068C00344BF30685FEAEF
:1018B000C030D3D53068C003F2D4CFE700F0D2FAFD
:1018C000401BA04208D83068C003F7D4C6E700BF69
:1018D000002001B0F0BD00BF032001B0F0BD00BF8B
:1018E000F86940F01000F861102030603068800620
:1018F000C3D5F86940F00800F861202030603068F6
:101900004006BDD5F86940F00400F8614020306021
:1019100030680006B7D5F86940F00200F861802011
:1019200030603068C005B1D5F86940F00100F86159
:101930004FF48070306030688007AAD5F86940F0B5
:101940002000F86102203060012001B0F0BD0000ED
:10195000B0B5044600F086FA054640F20000C2F237
:1019600000000078611C18BF044400BF00F07AFA40
:10197000401BA042FAD3B0BD2DE9F04381B040F244
:10198000FC08C2F2000898F81820012A04D10220AD
:1019900001B0BDE8F08300BF0546012088F81800BB
:1019A0004CF250308946FFF747FF28B1002188F8F4
:1019B000181001B0BDE8F0834FF0FF30C9F8000007
:1019C000286843F610470128C4F202071CD1286991
:1019D0003968000221F440713960396880B241F001
:1019E000040139603968084340F4803038604CF2B3
:1019F0005030FFF721FF396821F00401396057F8B2
:101A0000101C89053BD452E0D5E90260304486427F
:101A100030D2F000841C00BF28694FF44072C1B27C
:101A2000032939684FEA002021F440713960396890
:101A300038BF82B241EA02003860386820F0F8000E
:101A40003860386820433860386840F48030386047
:101A50004CF25030FFF7F0FE3968002821F0FA010F
:101A6000396047D1D5E9020101360844864204F1C4
:101A70000804D1D3002057F8101C890517D557F852
:101A8000101C21F4007147F8101C57F8101C41F489
:101A9000006147F8101C57F8101C21F4006147F84A
:101AA000101C57F8101C41F4007147F8101C57F82F
:101AB000101C49057FF57AAF57F8101C21F480619E
:101AC00047F8101C57F8101C41F4805147F8101CBF
:101AD00057F8101C21F4805147F8101C57F8101CBF
:101AE00041F4806147F8101C002188F8181001B0FB
:101AF000BDE8F083C9F8006057F8101C8905BED412
:101B0000D5E7000043F61041C4F20201086840F036
:101B1000004200200A6070472DE9F04381B040F296
:101B2000FC04C2F200049046227E012A04D1022065
:101B300001B0BDE8F08300BF0746012020764CF2DB
:101B400050301E460D46FFF777FE28B10021217662
:101B500001B0BDE8F08300BF43F61049022FC4F284
:101B6000020917D0012F2BD0002F3FD1D9F8000048
:101B700020F44070C9F80000D9F80000C9F800004E
:101B8000D9F8000040F00100C9F8000085F8008095
:101B900043E000BFD9F8000020F44070C9F800000D
:101BA000D9F8000040F40070C9F80000D9F800002E
:101BB00040F00100C9F80000C5F800802DE000BF2A
:101BC000D9F8000020F44070C9F80000D9F80000EE
:101BD00040F48070C9F80000D9F8000040F001001E
:101BE000C9F80000A5F8008017E000BFD9F8000090
:101BF00020F44070C9F80000D9F8000040F44070AB
:101C0000C9F80000D9F8000040F00100C9F8000050
:101C1000C5F80080BFF36F8F6E604CF25030FFF755
:101C20000BFED9F8001021F00101C9F800100021C5
:101C3000217601B0BDE8F08343F60440C4F202000F
:101C4000C168B1F1FF3FC4BF0020704740F22311CB
:101C5000C4F26751016048F6AB11CCF6EF51016058
:101C6000C068C00F70470000B0F5005F06DA0428B6
:101C70000CD0102812D1012002F034BE0AD0B0F5E9
:101C8000004F18BF7047032002F02CBE002002F066
:101C900029BE00BF022002F025BE00BF7047000031
:101CA00043F61441C4F201010A68024214BF0860FD
:101CB0007047FFF7D9BF00002DE9F04F82B000F167
:101CC0003E4707F1FF77860546EA972741F200066F
:101CD000C4F20206072243F6004EB04208BF0422B7
:101CE000C4F2010E042F38BF3A46002600274FF0F9
:101CF0000008009209E000BF08F101080237B8F1BE
:101D0000100F06F1040600F0A3800D68012202FA0C
:101D100008F415EA0409EFD0D1F804B003220BF05F
:101D2000030CACF10105BA40012D6FEA020A0FD88D
:101D30008268CD6802EA0A02BD402A438260426896
:101D4000A243CBF3001404FA08F42243426005E0F6
:101D5000BCF1030F02D14FF0030C1EE0C2688C6887
:101D600002EA0A02BC402243BCF1020FC26014D155
:101D70006FF0030202EA58020244D2F820C006F0D3
:101D80001C040F230D69A3402CEA0303A5402B4339
:101D90001362D1F804B00BF0030C02680CFA07F3DD
:101DA00002EA0A021A431BF4403F0260A4D0002258
:101DB00043F644030192C4F202031A684FF6084C3A
:101DC00042F480421A601A68CFF6FF7C02F4804227
:101DD0000192019A28F00302724452F80C3006F086
:101DE0000C050F24AC40A343009C04FA05F52B43DB
:101DF00042F80C30DEF808204B6842EA090543F649
:101E00000C4CDC0258BF22EA0905CEF80850C4F297
:101E1000010CDCF800209C0242EA090558BF22EAC6
:101E20000905CCF80050DEF804209C0342EA0905BD
:101E300058BF22EA0905CEF80450DEF80020DB0383
:101E400042EA090558BF22EA0905CEF8005053E7D7
:101E500002B0BDE8F08F0000002A08BF09048161CC
:101E60007047000044F28830C2F2000000687047FA
:101E700040F2000044F28831C2F20000C2F20001D8
:101E800000780A68104408607047000080B543F687
:101E90000040C4F20200016841F400710160016871
:101EA00041F480610160016841F4807101600320A8
:101EB00000F086F80F2000F005F800F027F8002069
:101EC00080BD000070B540F20006C2F2000640F28C
:101ED00024013278C2F200014FF47A730968B3FB2F
:101EE000F2F20446B1FBF2F1084602F007F80F2CBB
:101EF0004FF0010508D838B94FF0FF3021460022D5
:101F0000002500F031F87460284670BD82B00020D2
:101F100043F640010190C4F202014A6842F4804253
:101F20004A604A6802F480420192019A009008686F
:101F300040F080500860086800F0805000900098E1
:101F400002B07047002848BF704700F01F0101220F
:101F500002FA01F11C2202EAD0004EF20012CEF287
:101F6000000281507047000010B54EF60C5CCEF2B6
:101F7000000CDCF80030C3F3022E8EF00704042CB2
:101F800028BF0424BEF103034FF0FF3E0EFA04F411
:101F900038BF0023A14399400EFA03F39A4311433B
:101FA00000F00F0200F160430901043A03F56443B5
:101FB0006244002848BF02F10C03197010BD0000F4
:101FC0004EF60C51CEF200010A684FF6FF031A409C
:101FD00060F30A2242F0806040F0FD7008607047B4
:101FE0007047000002680020516270472DE9F041FF
:101FF000D0F80080D8F8243081B1D8F82870B1F139
:10200000010E03EB174355D05FFA8EF104290EF051
:10201000030C0BD2002700212DE000BF43EA024150
:102020000020C8F82810BDE8F08100BF0EF0FC04C5
:1020300008F1F405002108F5827600BF55F8107FFD
:1020400041F0020003EB174341F00107FFB256F8DD
:102050002770C0B256F8200003EB174303EB104083
:1020600041F00303DBB256F823300431CFB2A7426C
:1020700000EB1343E2D1BCF1000F1BD008EB87004B
:10208000D0F80401BCF1010F03EB104312D0481C3F
:10209000C0B208EB8000D0F80401BCF1020F03EBE2
:1020A000104307D0881CC0B208EB8000D0F80401B0
:1020B00003EB104343EA024008EB8E01C1F8040130
:1020C0000020BDE8F0810000D0F8E00405F046B83B
:1020D00001EBC102D0F8E03400EB8200026A18463E
:1020E00004F09EBF01EBC102D0F8E03400EB8200A7
:1020F000D0F86022184604F0F1BF0000D0F8E004E8
:1021000005F02EB810B5044648B2B0F1FF3F01F01B
:102110000F0000EBC00104EB810205DD02F5157133
:10212000002382F8553203E0012302F114015375B4
:1021300094F894240870012A04BF022010BD20687E
:10214000012284F8942405F0EFFD002084F8940423
:1021500010BD0000B0B50279044601F00F009042B6
:1021600084BF0120B0BD49B2B1F1FF3F0ADD00EBF1
:10217000C00104EB810202F51571002382F855328B
:1021800008E000BF00EBC00104EB8102012302F173
:102190001401537594F894240025012A8D70087059
:1021A00004BF0220B0BD2068012284F8942406F008
:1021B000A5F8284684F89454B0BD000001F00F0142
:1021C00001EBC10100EB8100D0F86802704700000C
:1021D00070B5064648B2B0F1FF3F01F00F0000EBCA
:1021E000C00107DD06EB810404F51571002584F8B4
:1021F000555206E006EB810C01240CF114018CF819
:1022000015404D786FF3DF22002D08708A600B7146
:1022100018BF4883022B04BF0020487196F894042D
:10222000012804BF022070BD3068012286F8942482
:1022300005F0ECFB002086F8940470BD10B501F0A9
:102240000F0404EBC40100EB810E4FF0000CCEF83C
:1022500068C28EF855C290F806C0CEF86022CEF85B
:102260006432BCF1010F8EF8544208BFCEF87022E0
:1022700000680EF51571624606F08AF8002010BD60
:10228000B0B50446007901F00F05854284BF0120F6
:10229000B0BD48B2B0F1FF3F0ADD01EBC10004EB75
:1022A000800000F51571002280F8552208E000BF7B
:1022B00005EBC50004EB8000012200F1140142751A
:1022C00094F89404012201288A700D7004BF022042
:1022D000B0BD206884F8942406F03AF825B10020B7
:1022E00084F89404B0BD00BF2068A17904F29C4238
:1022F00005F0D6FF002084F89404B0BD80B501F04D
:102300000F0C0CEBCC0100EB810E714601F814CFE1
:102310004FF0000CC1F814C04FF0010C81F801C05F
:1023200090F806C0CA60BCF1010F0B6108BFCEF87F
:1023300030200068624606F02BF8002080BD0000C7
:102340002DE9F04F89B0D0F800A00646504606F0BF
:1023500031FA18B109B0BDE8F08F00BF306806F05F
:1023600057FA0028F6D0DAF80808C0F30D213068D3
:10237000C6F8D41406F04CFA01463068890703D534
:10238000416901F0020141610AF50061049106F022
:102390003FFA01463068C90608963BD5816921F0AD
:1023A00010018161DAF82040C4F34340062804F0AC
:1023B0000F0519D0022828D147F6F07014EA00085A
:1023C00023D005EBC50006EB8007D7F860124FEA73
:1023D00018145046224606F01FFAD7F8600200EBA8
:1023E0001810C7F8600207E006F29C415046082228
:1023F00006F012FAC4F30A1405EBC50006EB8000E0
:10240000D0F868122144C0F868123068816941F040
:102410001001816106F0FCF9000340F1F580089895
:10242000006806F0D3F9002800F0EE800646089810
:102430004FF4306400F29C4100F51D784FF0000B22
:10244000079119E00AEB040002218160B80642BF3F
:102450000AEB040020218160B80442BF0AEB0400AB
:102460004FF4005181600BF1010B760804F1200458
:1024700008F1240800F0C880F007F4D008985FFA4B
:102480008BF90068494606F0BBF90746C00763D0E0
:102490000AEB040001218160089D28682118036C63
:1024A0008A68AD79012D29D1150735D4950600F13B
:1024B000A38012F0280F4FD143F20B05C4F65475D8
:1024C000AB4202D312F400422FD1D8F800200969A0
:1024D000BBF1000F6FF3DF41A2EB010148F80C1CC8
:1024E00035D1089BD3F86422002A00F08B80D3F802
:1024F00060020844C3F8600229E000BF43F20B0504
:10250000C4F65475FF35AB4216D110040DD49006B5
:1025100044BF202088601AE043F20B00C4F65470D8
:10252000834219D312F4004016D04FF40040886063
:10253000380713D440E000BFBBF1000F07D1089962
:10254000D1F8641219B90021079A05F0A9FE08987C
:102550004946FFF7C7FD00BF38072DD50AEB040039
:1025600008218160089843F20B020068C4F6547297
:10257000056C2044816895420AD311F4004107D0CC
:102580004FF400418160089800F020FD09E000BF91
:10259000089800F01BFD43F20B00C4F6547085420E
:1025A0000AD308988079012806D10898079A00680C
:1025B000012105F075FE00BFF80642BF0AEB0400DA
:1025C00010218160B8077FF541AFDAF814000006EA
:1025D00004D50499486840F48060486018F81D0CE0
:1025E00001287FF42FAF002008F81D0C08984946F9
:1025F00000F042FB26E700BF202088603807ADD4FA
:10260000DAE700BF01219FE7DDF820B0CDF80CA08C
:10261000DBF8000006F0FCF8400340F1D580DBF861
:10262000000006F0CBF8002800F0CE808246039828
:10263000012700F510660BF29C40002501900296E0
:1026400006E000BF5FEA5A0A05F1010500F0BC8010
:102650005FEACA70F6D0DBF80000E9B2079106F035
:10266000BDF80446C00725D0049A05F00F00516B51
:1026700007FA00F021EA0000506306EB451087607E
:102680009BF80600012811D105EBC5000BEB80007B
:10269000D0E907121144016245B9DBF8240028B9DA
:1026A000DBF80000019A012105F0FAFD0799584670
:1026B000FFF70EFD200742BF06EB451008218160A1
:1026C000E00642BF06EB451010218160600642BF64
:1026D00006EB451040218160A00715D503982946D7
:1026E00005F0FAFF05EBC5000BEB800010F8171F93
:1026F000012905D1002101700799584600F0B8FA68
:1027000006EB45100221816020069BD505EBC50034
:102710000BEB8002914659F8241FC84658F8040F65
:1027200081428FD3DBF8006093465BF81C7F0B1A65
:10273000BB4238BF1F46069606EB4513D3F818C9AF
:1027400007F1030E1FFA8CF7B7EB9E0F28D303F5A2
:10275000106102F120070591D9F8001081421FD9BC
:10276000DBF80040089A081AA0423968967938BF09
:102770000446DDE90602A3B2009606F047FB38687E
:10278000D8F800102044386008190599C8F80000EE
:102790008969E21C89B2B1EB920FDDD2D9F8001041
:1027A000DDF820B0029E012781423FF64BAF069A2A
:1027B00005F00F00D2F8341807FA00F021EA000003
:1027C000C2F834083EE700BFDBF8000006F020F84E
:1027D000002825D4DBF80000DDE9038906F018F8AD
:1027E000000540D4DBF8000006F012F8C0044BD519
:1027F000D9F80400102120F00100C9F80400DBF82A
:10280000000005F069FF9BF80400010600F0F0806D
:10281000C1B2042900F003003AD200219FE000BFBA
:10282000DDF81090D9F8040020F00100C9F8040088
:102830009BF8CC04012807D100208BF8CC04584623
:102840000021FFF7CDFB02E0584600F0A3FBDBF8C8
:102850000000DDF80C80416901F00041416105F0A4
:10286000D7FF0005BED5D9F80800C00702D05846EA
:1028700000F0D4FBDBF80000416901F40061416124
:1028800005F0C6FFC004B3D4DBF80000E3E000BFEE
:102890006FF0600202EA411200234FF67F370021F9
:1028A00008EB0306C6F80879D6F80059803325F4FA
:1028B0000015C6F80059C6F8087BD6F8005B9A42A6
:1028C00025F40015C6F8005BD6F8005B01F10401A1
:1028D00045F00065C6F8005BC6F82879D6F820599F
:1028E00025F40015C6F82059C6F8287BD6F8205BD9
:1028F00025F40015C6F8205BD6F8205B45F000658E
:10290000C6F8205BC6F84879D6F8405925F400157A
:10291000C6F84059C6F8487BD6F8405B25F4001548
:10292000C6F8405BD6F8405B45F00065C6F8405BF2
:10293000C6F86879D6F8605925F40015C6F86059CC
:10294000C6F8687BD6F8605B25F40015C6F8605BB6
:10295000D6F8605B45F00065C6F8605BA0D1002842
:1029600046D008F5106202EB41134FF67F374E0157
:102970009F60955908F5306325F40015955103EBD8
:102980004115AF609D59012825F400159D519D59B1
:1029900045F000659D512BD04E1C02EB461475018D
:1029A000A760545903EB461624F400145451B76041
:1029B0005F59022827F400175F515F5947F00067FD
:1029C0005F5115D0881C02EB40174FF67F3641014E
:1029D000BE60575803EB401027F40017575086602D
:1029E000585820F400105850585840F00060585083
:1029F000D9F81C0040F00110C9F81C009BF80F002A
:102A000040B1D9F8840040F00B00C9F8840009F106
:102A1000440008E0D9F8140042F22B010843C9F839
:102A2000140009F1100001680BF29C4241F00B0107
:102A30000160D9F8000020F4FE60C9F80000DBF85E
:102A400000009BF8061005F02BFCDBF80000416944
:102A500001F48051416105F0DBFE0146DBF8000026
:102A600089041AD505F014F8DBF8000005F094FE8F
:102A7000DBF800408BF8070000F09CFB9BF8072078
:102A80000146204606F0E4F8584600F071FADBF8FB
:102A90000000416901F40051416105F0B9FE0007F1
:102AA00006D4DBF8000005F0B3FE00060DD437E0D5
:102AB000584600F073FADBF80000416901F00801A4
:102AC000416105F0A5FE00062AD5D8F8180020F0CF
:102AD0008000C8F818009BF80400022820D30124C5
:102AE00040F27B2505E000BF0134844205F1240556
:102AF00016D21BF805100129F6D104F00F0000EBE7
:102B0000C0000BEB80022006DBF8000002F114018C
:102B100058BF02F5157105F04FFD9BF80400E3E77F
:102B2000DBF8000005F074FEC0024FD4DBF80000B3
:102B300005F06EFE800240F17E809BF804100229B1
:102B40002BD308F5326001390BF51F72012303E026
:102B5000013900F1200020D01746066812F8245BE6
:102B6000012DF5D1B6F1FF3FF2DCDBF8D45485EA54
:102B70001646F607ECD107F8013CD8F8187047F074
:102B80008007C8F81870D8F814703F06E0D4D9F858
:102B9000040040F40070C9F80400DBF8000041694B
:102BA00001F40011416105F033FE400049D558465B
:102BB000FFF78AFADBF80000416901F080414161CA
:102BC00005F026FE40077FF5C5AB41E09BF8040009
:102BD000022825D308F512640BF13C0501260127D4
:102BE00005E000BF0137874204F1200418D22946CE
:102BF000226815F8243B012BF4D1B2F1FF3FF1DC40
:102C000007F00F0000EBC00001F8016C0BEB800136
:102C1000DBF80000143105F0CFFC9BF80400E1E77D
:102C2000DBF80000416901F48011416105F0F0FD1D
:102C300080023FF582AFDBF8000005F0E9FD4000BF
:102C4000B5D4DBF8000005F0E3FD40077FF582AB6B
:102C5000DBF800004468610704D55846FFF74EFAD8
:102C6000DBF8000041682143416009B0BDE8F08F06
:102C7000D0F8E00404F0D4BAD0F8E00404F0E6BAE6
:102C800070B582B0002800F022810446056890F8F3
:102C9000950428B9002084F89404204600F028F90F
:102CA0000320B5F1A04F84F8950404BF0020A07163
:102CB000206805F0EDFA94E80F00267C009604F0F9
:102CC000F7FE002840F000812068002105F0FAFDA1
:102CD000002840F0F98094F804E0BEF1000F00F005
:102CE000EC800EF0030CBEF1040F4FF000023FD356
:102CF0000EF0FC03A4F1900503200121C61E85F807
:102D0000A460A5F8BE60861E85F8C860A5F8E260DC
:102D1000461E85F8EC60A5F8066185F81001A5F857
:102D20002A01061D013085F8A51085F8A820C5E9FF
:102D30002B22C5F8B42085F8C91085F8CC20C5E948
:102D40003422C5F8D82085F8ED1085F8F020C5E9C3
:102D50003D22C5F8FC2085F8111185F81421C5E93C
:102D60004622C5F82021903598423046C6D1F21E41
:102D7000BCF1000F2CD002EBC20004EB8003012158
:102D80000020BCF1010F59751A75DA851876C3E970
:102D9000070058621CD0531C03EBC30504EB8505E8
:102DA000BCF1020F69752B75EB852876C5E9070024
:102DB00068620DD0901C00EBC00104EB8101012280
:102DC0000875C88500204A750876C1E90700486281
:102DD000BEF1000F71D0BEF1040F4FF0000235D3E9
:102DE0000EF0FC0003212346CE1E83F854628E1E93
:102DF00083F878624E1E83F8C0120D1D013183F8EE
:102E0000552283F85822C3E99722C3F8642283F835
:102E1000792283F87C22C3E9A022C3F8882283F8B0
:102E20009D2283F89C6283F8A022C3E9A922C3F8FB
:102E3000AC2283F8C12283F8C422C3E9B222C3F8CA
:102E4000D022903381422946CED1EA1EBCF1000F38
:102E500033D002EBC20004EB80010020BCF1010F73
:102E600081F8550281F8542281F85802C1E997008F
:102E7000C1F8640221D0511C01EBC10304EB8303B0
:102E8000BCF1020F83F8550283F8541283F85802FC
:102E9000C3E99700C3F864020FD0901C00EBC00197
:102EA00004EB8101002281F8552281F8540281F857
:102EB0005822C1E99722C1F8642294E80F00267CC9
:102EC000009604F095FF38B1022084F8950401259E
:102ED000284602B070BD00BF00250120657484F84B
:102EE0009504206804F074FF284602B070BD00000D
:102EF0000068B0F1A04F18BF7047B0B586B000258C
:102F000043F630040195C4F20204206801A940F0A0
:102F100001002060206800F00100019001984FF44A
:102F2000C05001900220CDE90205032004900A2040
:102F300005900020C4F20200FEF7BEFE606800218A
:102F400040F08000606000956069002240F480409D
:102F50006061606900F48040009000984320FFF7B2
:102F600003F84320FEF7EEFF06B0BDE8B04070471F
:102F700010B50446C079022818BFFEF759FCD4F8F2
:102F8000E004012104F0EAF9D4F8E004BDE81040BF
:102F900004F098B9D0F8E00404F0C6B9D0F8E00421
:102FA00004F0CCB910B5044690F89404012804BF8D
:102FB000022010BD012084F894046174206805F09B
:102FC00035FE002084F8940410BD0000D0F8E02401
:102FD00000F29C41104604F0D7B9000010B5044639
:102FE00090F89404012804BF022010BD206801213C
:102FF00084F89414C168490606D5617B012903D180
:10300000816B41F48031816305F05EFB206804F040
:10301000CFFE002084F8940410BD000010B50446D3
:10302000D0F8E00404F006FA2068D0F8001E41F061
:103030000101C0F8001EE07A002808BF10BD4EF65E
:103040001050CEF20000016841F00601016010BD91
:10305000002804BF012070472DE9F04143F608081D
:10306000C4F202080446D8F8F8030D4600F0070041
:10307000884207D288F8F853D8F8F80300F0070020
:10308000A84277D12068810717D5410705D5D8F820
:10309000001041F4E051C8F80010010705D5D8F838
:1030A000001041F46041C8F80010D8F80010A26880
:1030B00021F0F0011143C8F80010C00740D1D8F842
:1030C000F80300F00700A84207D988F8F853D8F8A9
:1030D000F80300F00700A8424CD12068410707D54B
:1030E000D8F80010E26821F4E0511143C8F800104C
:1030F000000708D5D8F80000216920F4604040EAB4
:10310000C100C8F8000000F05BF8D8F8001049F6DC
:103110009462C1F30311C0F60002515C40F2240234
:1031200020FA01F140F20400C2F200000068C2F28D
:1031300000021160FEF7C6FE0020BDE8F08100BF6E
:103140006068811E022907D258F8081C89015CBFFB
:103150000120BDE8F08111E0012807D158F8081CD2
:1031600089035CBF0120BDE8F08107E058F8081C26
:10317000890703D40120BDE8F08100BFD8F8001012
:1031800021F003010843C8F80000FEF76BFE064675
:1031900041F28837D8F80000616800F00C00B0EB0D
:1031A000810F8CD0FEF75EFE801BB842F2D903205F
:1031B000BDE8F08140F22400C2F2000000687047D0
:1031C00010B543F60404C4F20204606800F00C0079
:1031D000082842F20040C0F2F40018BF10BD216878
:1031E0002268236801F03F02C3F38811A1FB0001AC
:1031F0000023FDF7C7F821680222C1F3014102EB69
:103200004101B0FBF1F010BD002804BF0120704760
:103210002DE9F04182B00446007843F60006C0076D
:10322000C4F202060CD0B06800F00C00042840F094
:1032300081803068800303D56068002800F06A81CF
:10324000207880071BD5B06810F00C0F09D0B0684B
:1032500000F00C00082840F087807068400200F100
:1032600083803068800703D5E068012840F05281F0
:103270003068216920F0F80040EAC1003060207811
:10328000000713D4207840072AD4A569002D00F048
:103290003C81B06800F00C00082840F0A180012DAE
:1032A00040F01081012002B0BDE8F0816069002883
:1032B00040F20000C4F2472000F07E800121C0F8F7
:1032C000801EFEF7CFFD0546706F8007DAD4FEF74B
:1032D000C9FD401B0228F7D9032002B0BDE8F081E8
:1032E000306C5FEAC0080AD400200190306C40F0D6
:1032F00080503064306C00F080500190019847F2AB
:103300000007C4F200073868C00547D4386840F4A5
:1033100080703860FEF7A6FD054600BF3868C0051E
:103320003CD4FEF79FFD401B0228F7D9032002B0D2
:10333000BDE8F081B06800F00C00082803D1706887
:1033400040023FF576AF6068B0F5803F07D0B0F53A
:10335000A02F40F09B80306840F4802030603068BF
:1033600040F4803030609BE0E06800285CD00020B2
:10337000C4F2472001210160FEF774FD054600BF3D
:10338000306880073FF574AFFEF76CFD401B0228E4
:10339000F6D9032002B0BDE8F08100BFA068012883
:1033A00005D0052854D1306F40F004003067306FED
:1033B00040F00100306755E00021C0F8801EFEF7A4
:1033C00051FD0546706F80077FF55CAFFEF74AFD43
:1033D000401B0228F6D9032002B0BDE8F08100BFEF
:1033E0000027C4F2472700203866FEF73BFD022D78
:1033F00005460DD13068800140F19080FEF732FD26
:10340000401B02284FF00300F4D902B0BDE8F08160
:103410003068800179D5FEF725FD401B02284FF06A
:103420000300F5D9F1E700BF0020C4F247200021D6
:103430000160FEF717FD0546306880077FF51FAF76
:10344000FEF710FD401B02284FF00300F4D9DCE723
:10345000316F002821F001013167316F21F0040143
:1034600031677DD0FEF7FEFC054641F2883700BF8C
:10347000306F800700F18680FEF7F4FC401BB842F5
:10348000F6D9032002B0BDE8F08100BF3168002802
:1034900021F480313160316821F4802131607BD0AA
:1034A000FEF7E0FC054600BF306880033FF5C8AE7C
:1034B000FEF7D8FC401B6428F6D9032002B0BDE813
:1034C000F08100BF7068E16900F480028A4221D176
:1034D000216A00F03F028A421CD147F6C071626A3D
:1034E0000140B1EB821F15D1A16A4FF6FF73C903EA
:1034F000994300F44032A1F580318A420AD1E16A51
:1035000000F07060B0EB016F04D1002002B0BDE8A4
:10351000F08100BF012002B0BDE8F08104F11C057C
:103520002FCD084340EA8210D9034FF6FF72914332
:10353000A1F5803140EA05600843706001203866DB
:10354000FEF790FC044600BF30688001DDD4FEF732
:1035500089FC001B02284FF00300F5D955E700BF96
:10356000FEF780FC054641F2883700BF306F8007C8
:1035700008D5FEF777FC401BB8424FF00300F5D9A1
:1035800043E700BFB8F1000F3FF57FAE306C20F08D
:103590008050306479E600BFFEF764FC054600BF4A
:1035A000306880037FF54CAEFEF75CFC401B64285E
:1035B0004FF00300F4D928E770B538B10446406AEB
:1035C00030B10020206104F1140007E0012070BD3B
:1035D0006068B0F5827F03D004F11C000021016017
:1035E0000026A66294F8510020B9204684F8506065
:1035F00000F03CF8022084F8510094E80F0001F438
:103600008271056802F4044225F04005056011440A
:1036100003F400622369114403F002026369114458
:1036200003F00102A369E569114403F40072114437
:1036300005F03802256A114405F08002A56A11439D
:1036400005F4005211430160626A042101EA13414A
:1036500002F0100211444160C16921F40061C161AE
:103660000120666584F85100304670BD80B586B093
:10367000006843F60042C4F2000200219042CDE906
:103680000411CDE90211019124D043F20001C4F2EA
:103690000101884249D1002043F630010090C4F274
:1036A00002014A6942F480524A614A6902F4805236
:1036B0000092009A00900868E02240F00100086043
:1036C0000868052100F00100009000980020C4F275
:1036D00002001FE043F630000091C4F202000269CC
:1036E00042F400420261026902F400420092009A30
:1036F000009101684FF4E05241F00401016000685C
:10370000062100F00400009000980020C4F202009E
:1037100000F500600192022202920022039203222D
:10372000CDE9042101A9FEF7C7FA06B080BD00006B
:103730002DE9F04182B0044690F85100012818D1DB
:103740000E4600294FF0010000F0EF801746002AD6
:1037500000F0EB8060681D46B0F5827F03D1A06861
:10376000002800F0BB80FEF77DFB94F85010012983
:1037700004D1022002B0BDE8F08100BF80460120E4
:1037800084F850000420002184F851006165A6638C
:10379000A787E7872163A186E186A2682068B2F542
:1037A000004F2164616437D0016849063FD5E16864
:1037B000E08F002943D000287AD0681C0BD11AE092
:1037C000C068A16B21F8020BA163E08F0138E0878C
:1037D000E08F00286CD020688168C907F0D1FEF71F
:1037E00041FBA0EB0800A842F2D342E0FEF73AFB0F
:1037F000E08F00285CD020688168C907F6D0C068D7
:10380000A16B21F8020BA163E08F0138E087E08F04
:103810000028F0D14CE000BF016821F040010160B8
:10382000016821F48041016001684906BFD4016844
:1038300041F040010160E168E08F0029BBD1B8B3DD
:10384000681C0CD124E000BF007BA16B0870A06B4A
:103850000130A063E08F0138E087E08F40B320683B
:103860008168C907F0D1FEF7FDFAA0EB0800A84275
:10387000F3D3012084F85100002084F85000032085
:1038800002B0BDE8F08100BFFEF7ECFAE08F78B13E
:1038900020688168C907F7D0007BA16B0870A06B16
:1038A0000130A063E08F0138E087E08F0028EFD17E
:1038B0006068B0F5827F0ED1A068B0F5004F02D0ED
:1038C000B0F5806F18D12168B0F5806F0A6822F0DA
:1038D00040020A6010D1204601210FE0042084F844
:1038E00051002046314632463B46009500F05EF9D5
:1038F00002B0BDE8F08100BF2046802100222B46A7
:10390000CDF8008002F036FD28B1606D40F0200057
:10391000606520206065012084F85100002084F853
:103920005000606D002818BF012002B0BDE8F08192
:103930002DE9F04184B01D4616460F460446FEF7B9
:1039400091FA94F8511001290ED18046002F4FF0C2
:10395000010018BF002E03D104B0BDE8F08100BF04
:1039600094F85000012803D1022004B0BDE8F08192
:10397000012084F850000320002184F85100616583
:103980002763A686E686A163A187E187A0682164F4
:10399000B0F5004F2068616407D1016821F0400153
:1039A0000160016841F4804101600168490603D467
:1039B000016841F0400101606168731EE268B1FA7C
:1039C00081F1B3FA83F349095B09B2F5006F41EA6B
:1039D000030139D131B137F8021BC1602763E08E92
:1039E0000138E086E08E002870D0681C0BD11AE008
:1039F000216B31F8022BC2602163E08E0138E08632
:103A0000E08E002862D0206881688907F0D4FEF734
:103A100029FAA0EB0800A842F2D338E0FEF722FA18
:103A2000E08E002852D0206881688907F6D5216B86
:103A300031F8022BC2602163E08E0138E086E08E0F
:103A40000028F0D142E000BF39B139780173206B12
:103A500001302063E08E0138E086E08EB0B3681C50
:103A60000BD123E0216B09780173206B01302063B7
:103A7000E08E0138E086E08E40B3206881688907D7
:103A8000F0D4FEF7EFF9A0EB0800A842F3D3012031
:103A900084F85100002084F85000032004B0BDE8F1
:103AA000F08100BFFEF7DEF9E08E78B12068816812
:103AB0008907F7D5216B09780173206B01302063EA
:103AC000E08E0138E086E08E0028EFD1204602210A
:103AD00001222B46CDF8008002F04CFCE0B1606D75
:103AE00040F02000606520206065A06838B90020A3
:103AF00002902068C16802918068029002980120BB
:103B000084F85100002084F85000606D002818BF30
:103B1000012004B0BDE8F08140F22400C2F20000B0
:103B2000006849F68171C1F25E61A0FB0101480D98
:103B30004FF47A71484303906068B0F5827F0BD1EF
:103B40002046802100222B46CDF8008002F012FC96
:103B50000028C4D1C9E700BF03980028C5D0039846
:103B600001380390206880680006BED503980028BD
:103B7000BBD0039801380390206880680006B4D554
:103B800003980028B1D0039801380390206880681A
:103B90000006AAD503980028A7D0039801380390FF
:103BA000206880680006D7D49FE700002DE9F04325
:103BB00083B01E4615460F460446FEF753F994F8A7
:103BC00051108146012909D1002F4FF0010018BF83
:103BD000002D0FD103B0BDE8F08300BF6068B0F5E1
:103BE000827F0DD104294FF00200F3D1A168002992
:103BF000EAD0EFE7002EEDD094F85000012803D171
:103C0000022003B0BDE8F083012084F8500094F84E
:103C10005100002104281CBF052084F85100616573
:103C2000A563E687A6872763E6862068A6862164C3
:103C300061640168490603D4016841F040010160F4
:103C40006168731EE268B1FA81F1B3FA83F3DDF8BB
:103C5000288049095B09B2F5006F41EA030165D18B
:103C600031B137F8021BC1602763E08E0138E0866E
:103C7000012518F1010032D102E000BFFEF7F2F891
:103C8000E08E18B9E08F002800F0B88020688168C5
:103C900089070CD5E18E51B1012D08D1216B00258A
:103CA00031F8022BC2602163E18E0139E18681681F
:103CB000C907E3D0E18F0029E0D0C068A16B0125DE
:103CC00021F8020BA163E08F0138E087D6E700BF3F
:103CD000FEF7C8F8A0EB0900404580F0A580E08E13
:103CE00018B9E08F002800F0898020688168890772
:103CF0000CD5E18E51B1012D08D1216B002531F891
:103D0000022BC2602163E18E0139E1868168C90717
:103D1000DED0E18F0029DBD0C068A16B012521F83E
:103D2000020BA163E08F0138E087D1E739B1397820
:103D30000173206B01302063E08E0138E08601259D
:103D400018F1010032D101E0FEF78CF8E08E10B9D5
:103D5000E08F002852D02068816889070ED5E18E57
:103D600061B1012D0AD1216B002509780173216B06
:103D7000206801312163E18E0139E1868168C9073C
:103D8000E2D0E18F0029DFD0C068A16B0125087067
:103D9000A06B0130A063E08F0138E087D4E700BF5B
:103DA000FEF760F8A0EB090040453DD2E08E08B96F
:103DB000E08F18B32068816889070ED5E18E61B164
:103DC000012D0AD1216B002509780173216B206830
:103DD00001312163E18E0139E1868168C907DFD0B5
:103DE000E18F0029DCD0C068A16B01250870A06BB1
:103DF0000130A063E08F0138E087D1E7204602213F
:103E000001224346CDF8009002F0B4FAB0B1606DE3
:103E100040F02000606520206065002084F850009C
:103E2000012003B0BDE8F083012084F85100002098
:103E300084F85000032003B0BDE8F08340F2240072
:103E4000C2F20000006849F68171C1F25E61A0FB18
:103E50000101480D4FF47A71484302906068B0F553
:103E6000827F21D12046802100224346CDF8009058
:103E700002F080FA0028CAD1A06838B90020019069
:103E80002068C1680191806801900198012084F840
:103E90005100002084F85000606D002818BF0120F8
:103EA00003B0BDE8F08300BF02980028E4D0029878
:103EB00001380290206880680006DDD5029800284D
:103EC000DAD0029801380290206880680006D3D5C5
:103ED00002980028D0D002980138029020688068AB
:103EE0000006C9D502980028C6D002980138029071
:103EF000206880680006D7D4BEE70000411E00207D
:103F0000B0EB116F1CBF012070474EF21002CEF2D1
:103F1000000251604EF62351CEF20001F0230B70E7
:103F200007219060116070477047000070470000E3
:103F300090F83C20012A4FF0020241D010B580F8E1
:103F40003D200268D2F804E0D2F808C00C682EF0D8
:103F50007003234340F6FF34C4F20004A2425360CE
:103F600010DCB2F1804F1ED040F20043C4F20003D7
:103F70009A4218D040F60003C4F200039A4212D0CD
:103F800016E000BF40F60043C4F200039A420AD094
:103F900044F20003C4F201039A4204D00023C4F2A5
:103FA00001039A4204D149682CF0800319439160BF
:103FB0000121002280F83D1080F83C20BDE810402F
:103FC00010467047002804BF0120704710B5044612
:103FD00090F83D0028B9002084F83C00204600F00D
:103FE0001FF8022084F83D002068211D02F0C2FA6B
:103FF000012084F8460084F83E0084F83F0084F8ED
:10400000400084F8410084F8420084F8430084F8BA
:10401000440084F8450084F83D00002010BD0000F5
:1040200000680021C4F20101884218BF704780B5C2
:1040300082B00020019043F64400C4F202000168FF
:10404000002241F0010101600068012100F001003F
:10405000019001981920FDF787FF192002B0BDE8F3
:104060008040FDF76FBF000090F83D1001291CBF94
:1040700001207047022180F83D10006840F6FF32B1
:10408000C168C4F20002904241F00101C1600FDC3E
:10409000B0F1804F1DD040F20041C4F200018842CF
:1040A00017D040F60001C4F20001884211D017E099
:1040B00040F60041C4F2000188420AD044F20001F7
:1040C000C4F20101884204D00021C4F201018842F7
:1040D00006D1816801F00701062904BF002070475E
:1040E000016841F0010101600020704790F83C2018
:1040F000012A4FF0020200F0C58080B580F83D2013
:10410000D0F800C04FF67772DCF8083023EA0202DC
:10411000CCF808200B684F2B28DC1F2B44DD202B0C
:1041200045D0302B43D0402B40F0AE80D1F804E096
:10413000C968DCF82030DCF8202022F00102CCF83D
:104140002020DCF8182022F0F00242EA011123F0CE
:104150000A0242EA0E02CCF81810CCF82020DCF853
:10416000081041F0470121F0300180E06F2B27DD7E
:10417000B3F5005F48D0B3F5805F7AD0702B40F084
:104180008380D1E901E3C968DCF8082043EA0E0323
:1041900022F47F4243EA01211143CCF80810DCF8F5
:1041A000081041F0770162E00BB1102B6CD1DCF804
:1041B000081021F07001194341F0070157E000BFDA
:1041C000502B35D0602B5FD1D1F804E0C968DCF802
:1041D0002030DCF8202022F01002CCF82020DCF87F
:1041E000182022F4704242EA013123F0A00242EA90
:1041F0000E12CCF81810CCF82020DCF8081041F092
:10420000670121F0100132E0D1E901E3C968DCF86F
:10421000082043EA0E0322F47F4243EA01211143BE
:10422000CCF80810DCF8081041F480411FE000BF12
:10423000D1F804E0C968DCF82030DCF8202022F056
:104240000102CCF82020DCF8182022F0F00242EA2B
:10425000011123F00A0242EA0E02CCF81810CCF841
:104260002020DCF8081041F0570121F02001CCF8A3
:1042700008100022012180F83D10002180F83C1038
:10428000BDE88040104670470122F3E77047000008
:1042900070B504460068C5680669B10716D515F003
:1042A000020113D06FF002010161012121778069C1
:1042B000800703D02046FFF7E9FF05E0204600F025
:1042C0008FF8204600F08EF800202077700719D56F
:1042D00015F0040016D020686FF00401016102217E
:1042E0002177806910F4407F04D02046FFF7CEFF8D
:1042F00006E000BF204600F073F8204600F072F898
:1043000000202077300717D515F0080014D020685A
:104310006FF00801016104212177C069800703D093
:104320002046FFF7B3FF05E0204600F059F820468D
:1043300000F058F800202077F00619D515F010008D
:1043400016D020686FF01001016108212177C06943
:1043500010F4407F04D02046FFF798FF06E000BF2E
:10436000204600F03DF8204600F03CF80020207781
:10437000F00718BF15F0010002D1300609D412E091
:1043800020686FF001010161204600F02DF8300631
:1043900009D515F0800006D020686FF0800101611A
:1043A0002046FFF7C1FD700609D515F0400006D084
:1043B00020686FF040010161204600F017F8B00658
:1043C00058BF70BD15F0200008D021686FF02002A2
:1043D00020460A61BDE87040FFF7A8BD70BD00002F
:1043E00070470000704700007047000070470000F1
:1043F000FEE700002DE9F04786B0002443F63000C8
:10440000CDE904440094C4F20200016840F20008BF
:1044100041F0040101600168C4F2020801F00401E6
:10442000009100990094016808F5006541F0800151
:1044300001600168012201F080010091009900945F
:1044400001684FF0010941F001010160016801F0CC
:104450000101009100990094016841F0020101609E
:1044600000684FF4804100F0020000900098284658
:10447000FDF7F2FC28464FF400410022FDF7ECFC6A
:10448000404601210122FDF7E7FC404640F20221AF
:104490000022FDF7E1FC08F5806630460921012283
:1044A000FDF7DAFC304612210022FDF7D5FC4FF46F
:1044B000005001AF01904FF4041A28463946CDE967
:1044C00002A9FDF7F9FB4FF44040CDE90109284668
:1044D0003946CDE90344FDF7EFFB40F20320CDE977
:1044E000010940463946CDE90344FDF7E5FB48F2B2
:1044F0001400CDE9010A40463946CDF80C90FDF78D
:10450000DBFB1B20CDE9010930463946CDE90344E8
:10451000FDF7D2FB082000210022FDF725FD082031
:10452000FDF710FD0A2000210022FDF71DFD0A20E5
:10453000FDF708FD282000210022FDF715FD2820A9
:10454000FDF700FD06B0BDE8F087000080B542F23F
:10455000882043F20001C2F20000C4F201014FF4CE
:104560008272002380E80E0000F114014FF4007CF9
:104570004FF0180E81E808500A21C0E90333C0E962
:104580000833C0E90A31FFF717F8002808BF80BDDB
:10459000BDE88040FDF74CB980B542F2E02043F61B
:1045A0000041C2F20000C4F200014FF48272002305
:1045B00080E80E0000F114014FF4007C4FF0100E63
:1045C00081E808500A21C0E90333C0E90833C0E993
:1045D0000A31FEF7F1FF002808BF80BDBDE880402A
:1045E000FDF726B980B586B042F2383000220021AE
:1045F000C2F20000C4F2010240F2473344F6206CDC
:104600000591CDE90311CDE90011C0E90023C0E90E
:10461000021CC0E904118161FFF7D4FC002818BF17
:10462000FDF706F94FF48050029042F23830C2F2A2
:10463000000002A9FFF75AFD002818BFFDF7F8F89F
:1046400042F23830C2F200006946FFF771FC0028E0
:1046500018BFFDF7EDF806B080BD000080B541F64B
:10466000C82040F20801C2F20000C2F2000100229C
:1046700002F09CFC002818BFFDF7DAF841F6C820CC
:1046800040F22801C2F20000C2F2000102F0FEFE78
:10469000002818BFFDF7CCF841F6C82040F2C4014D
:1046A000C2F20000C2F2000102F08EF9002818BF29
:1046B000FDF7BEF841F6C820C2F2000002F010FF7C
:1046C000002808BF80BDBDE88040FDF7B1B80000FC
:1046D000FEE70000FEE7000070B582B049F6DC712D
:1046E0000646C0F6000151F8264049F6EC71C0F6C6
:1046F000000131F816501D208DF803002046294690
:104700000022FDF7A9FB49F6A460C0F6000050F8AE
:1047100026600DF10301304601220123FFF708F95D
:104720000DF10201304601220123FFF701F8204676
:1047300029460122FDF790FB9DF8020080073AD43C
:1047400050208DF8050073208DF80400204629467E
:104750000022FDF781FB0DF1050130460122012306
:10476000FFF7E6F801A9304601220123FFF7E0F840
:10477000204629460122FDF76FFB3D208DF80700FA
:1047800006208DF80600204629460022FDF764FB2E
:104790000DF10701304601220123FFF7C9F80DF1A1
:1047A0000601304601220123FFF7C2F820462946C0
:1047B0000122FDF751FB02B070BD00002DE9F04170
:1047C00082B040F27422C2F20002136804468B42A7
:1047D00004D100257E2C0FD21AE000BF5068884219
:1047E00004D101257E2C07D212E000BF90688842D8
:1047F00008D102257E2C0BD334A002B0BDE8F041D5
:1048000004F0A4BDD06888424DD103257E2CF3D29C
:1048100041F6A820C2F20000445504F02FFB23A06B
:104820002946224604F092FD49F6DC70C0F60000ED
:1048300050F8256049F6F470C0F6000030F8158095
:10484000304641460022FDF707FB25208DF8070082
:1048500049F6EC70C0F6000030F815703046394665
:1048600000228DF80640FDF7F7FA49F6A460C0F67D
:10487000000050F825400DF10701204601220123D8
:10488000FFF756F80DF10601204601220123FFF73C
:104890004FF8304639460122FDF7DEFA30464146F0
:1048A0000122FDF7D9FA02B0BDE8F081446F6E67CE
:1048B0006C6520257520636F6E666967206368618B
:1048C0006E6E656C3A25750A000000004368616EE3
:1048D0006E656C206F7574206F662072616E6765FF
:1048E0002E0A00002DE9F0478CB06D46824605F196
:1048F00008002421FBF7A6FE49F6DC71C0F6000192
:10490000032051F82A4049F6F471C0F22C00C0F699
:10491000000101904FF6FB4031F81A80CFF6FD60A0
:104920000090204641460022FDF796FA49F6EC70C9
:10493000C0F6000030F81A60072049F6A4678DF829
:104940002F00204631460022C0F6000705F10C0971
:10495000FDF782FA57F82A700DF12F01384601222F
:104960000123FEF7E5FF0DF12E0138460122012358
:10497000FEF7DEFE204631460122FDF76DFA9DF876
:104980002E50680624D540F27420C2F2000050F880
:104990002A003146029061208DF82F002046002227
:1049A000FDF75AFA0DF12F01384601220123FEF7D7
:1049B000BFFF3846494620220123FEF7B9FE2046B4
:1049C00031460122FDF748FA68462C2104F0D4F95B
:1049D00015F070001CD027218DF82F108DF82E00B7
:1049E000204631460022FDF737FA0DF12F013846F7
:1049F00001220123FEF79CFF0DF12E013846012212
:104A00000123FEF795FF204631460122FDF724FAE7
:104A100017208DF82F00204631460022FDF71CFAA2
:104A20000DF12F01384601220123FEF781FF0DF120
:104A30002E01384601220123FEF77AFE2046314638
:104A40000122FDF709FA9DF82E00C00740F002810F
:104A500007208DF82F00204631460022FDF7FCF993
:104A60000DF12F01384601220123FEF761FF0DF100
:104A70002E01384601220123FEF75AFE2046314618
:104A80000122FDF7E9F99DF82E50680624D540F281
:104A90007420C2F2000050F82A00314602906120D2
:104AA0008DF82F0020460022FDF7D6F90DF12F01D9
:104AB000384601220123FEF73BFF384649462022B3
:104AC0000123FEF735FE204631460122FDF7C4F9E9
:104AD00068462C2104F050F915F070001CD02721F5
:104AE0008DF82F108DF82E00204631460022FDF75C
:104AF000B3F90DF12F01384601220123FEF718FF0B
:104B00000DF12E01384601220123FEF711FF204648
:104B100031460122FDF7A0F917208DF82F0020461D
:104B200031460022FDF798F90DF12F013846012298
:104B30000123FEF7FDFE0DF12E013846012201236F
:104B4000FEF7F6FD204631460122FDF785F99DF876
:104B50002E00C0077ED107208DF82F002046314659
:104B60000022FDF779F90DF12F01384601220123CA
:104B7000FEF7DEFE0DF12E01384601220123FEF77D
:104B8000D7FD204631460122FDF766F99DF82E50EB
:104B9000680624D540F27420C2F2000050F82A00C2
:104BA0003146029061208DF82F0020460022FDF74B
:104BB00053F90DF12F01384601220123FEF7B8FE0B
:104BC0003846494620220123FEF7B2FD20463146F1
:104BD0000122FDF741F968462C2104F0CDF815F0CB
:104BE00070001CD027218DF82F108DF82E00204644
:104BF00031460022FDF730F90DF12F013846012230
:104C00000123FEF795FE0DF12E0138460122012306
:104C1000FEF78EFE204631460122FDF71DF91720D2
:104C20008DF82F00204631460022FDF715F90DF1D1
:104C30002F01384601220123FEF77AFE0DF12E01E5
:104C4000384601220123FEF773FD2046314601223A
:104C5000FDF702F9E2208DF82F00204631460022B0
:104C6000FDF7FAF80DF12F01384601220123FEF776
:104C70005FFE204631460122FDF7EEF82046414610
:104C80000122FDF7E9F80CB0BDE8F0872DE9F04FFF
:104C900085B04FF0000B0020019000BF49F6DC709A
:104CA000C0F6000050F82B7049F6F470C0F6000012
:104CB00030F81B10384600220091FDF7CDF849F678
:104CC000EC70C0F6000030F81B80FF208DF80D005E
:104CD000384641460022FDF7BFF849F6A460C0F609
:104CE000000050F82B900DF10D0548462946012291
:104CF0000123FEF71DFE02AE484631460122012384
:104D0000FEF716FD384641460122FDF7A5F8FBF7F0
:104D1000FFFA8DF80D00FBF7FBFA8DF80E00FBF79C
:104D2000F7FA8DF80F00FBF7F3FA8DF81000FBF798
:104D3000EFFA8DF8110000208DF80C00029040F27F
:104D40007420C2F2000050F82BA030208DF8130020
:104D5000384641460022FDF77FF80DF1130448461E
:104D6000214601220123FEF7E3FD4846294605229C
:104D70000123FEF7DDFD384641460122FDF76CF8C0
:104D800010208DF81300384641460022FDF764F8E4
:104D90004846214601220123FEF7CAFD4846314616
:104DA00005220123FEF7C4FC384641460122FDF7E7
:104DB00053F89DF808009DF80D10884240F08E8150
:104DC0009DF809009DF80E10884240F087819DF8FB
:104DD0000A009DF80F10884240F080819DF80B007A
:104DE0009DF81010884240F079819DF80C009DF8E4
:104DF0001110884240F07281C6A0514604F0A6FA14
:104E000007208DF81300384641460022FDF724F8AC
:104E10000DF113064846314601220123FEF788FDB5
:104E20000DF112044846214601220123FEF780FCC1
:104E3000384641460122FDF70FF89DF81200272160
:104E400000F070008DF813108DF8120038464146BE
:104E50000022FDF701F84846314601220123FEF702
:104E600067FD4846214601220123FEF761FD3846D1
:104E700041460122FCF7F0FF9AFA8AF0000CADF8E7
:104E80000A004FEA1A408DF809004FEA1A608DF8BF
:104E900008000AEB1A6000EB1A4000EB1A208DF8AC
:104EA0000C00E2208DF81300384641460022FCF742
:104EB000D3FF4846314601220123FEF739FD38462B
:104EC00041460122FCF7C8FFE1208DF81300384667
:104ED00041460022FCF7C0FF48463146012201232B
:104EE000FEF726FD384641460122FCF7B5FF232098
:104EF0008DF8130003208DF8120038464146002239
:104F0000FCF7AAFF4846314601220123FEF710FDB7
:104F10004846214601220123FEF70AFD3846414654
:104F20000122FCF799FF2A208DF8130038464146EC
:104F30000022FCF791FF4846314601220123FEF78B
:104F4000F7FC484602A905220123FEF7F1FC38468A
:104F500041460122FCF780FF21208DF81300012536
:104F60003846414600228DF81250FCF775FF48463E
:104F7000314601220123FEF7DBFC4846214601228F
:104F80000123FEF7D5FC384641460122FCF764FFB9
:104F900022208DF813003846414600228DF8125029
:104FA000FCF75AFF4846314601220123FEF7C0FCB8
:104FB0004846214601220123FEF7BAFC3846414605
:104FC0000122FCF749FF26208DF8130007208DF8F9
:104FD0001200384641460022FCF73EFF4846314663
:104FE00001220123FEF7A4FC4846214601220123A9
:104FF000FEF79EFC384641460122FCF72DFF3C207F
:105000008DF813003846414600228DF81250FCF707
:1050100023FF4846314601220123FEF789FC48461A
:10502000214601220123FEF783FC38464146012236
:10503000FCF712FF20208DF813000F208DF81200CE
:10504000384641460022FCF707FF48463146012218
:105050000123FEF76DFC4846214601220123FEF79D
:1050600067FC384641460122FCF7F6FE41F6A820CF
:10507000C2F2000010F80B0025218DF813108DF8F6
:105080001200384641460022FCF7E6FE484631460B
:1050900001220123FEF74CFC484621460122012350
:1050A000FEF746FC384641460122FCF7D5FE5FFA82
:1050B0008BF0FFF711FB42F28030C2F2000000F8E3
:1050C0000B50009938460122FCF7C6FE0BF1010B8C
:1050D000BBF1040F7FF4E2AD0CE000BF08A0514625
:1050E00004F034F9012001900BF1010BBBF1040F26
:1050F0007FF4D4AD0198C0B205B0BDE8F08F00BF19
:10510000446F6E676C6520257820496E76616C6906
:10511000640A0000446F6E676C6520257820766114
:105120006C69640A000000002DE9F04F81B040F284
:105130007423C2F200031F688B469742804601D158
:10514000002410E05868904202D101240BE000BF17
:105150009868904202D1022405E000BFD8689042CE
:1051600040F08880032449F6DC7549F6F470C0F6F7
:105170000005C0F6000055F8249030F814A0484609
:1051800051460022FCF768FEBBF1210F0AD342A072
:105190005946202204F0DAF80124204601B0BDE887
:1051A000F08F00BF49F6EC71C0F6000155F82450AD
:1051B00031F8146007208DF801002846314600229E
:1051C000FCF74AFE49F6A460C0F6000050F82470CF
:1051D0000DF10101384601220123FEF7A9FB6946C2
:1051E000384601220123FEF7A3FA28463146012260
:1051F000FCF732FE9DF80000C00713D0E1208DF8C7
:105200000200284631460022FCF726FE0DF102017D
:10521000384601220123FEF78BFB28463146012246
:10522000FCF71AFEA8208DF803002846314600221C
:105230000024FCF711FE0DF1030138460122012381
:10524000FEF776FB384641465A460123FEF770FBCF
:10525000284631460122FCF7FFFD09A004F076F84C
:10526000484651460122FCF7F7FD204601B0BDE853
:10527000F08F00BF0124204601B0BDE8F08F00BFD1
:105280005478207061636B657420746F2064657658
:105290006963652E000000005061636B65742066D1
:1052A000726F6D20686F737420746F6F206269670E
:1052B0003A2025752C206D61782053697A653A2053
:1052C0002575000041F6A450C2F20000FDF738B881
:1052D0007047000070B5054600286FF0010071D0DE
:1052E0000C46002908BF70BDD4F89C11D4F8C80042
:1052F00094F894210239884202F0FE0108D9204432
:10530000CC30042914BF86219F21017018E000BF12
:10531000062204F1CC06042908BF1F223254D4F817
:10532000C810D4F89C218819511A01300239FBF7B2
:1053300067F9D4F89C0180210138C4F8C8003154C1
:10534000D4F8C80004F1CC010130C4F8C8002046EC
:1053500000F03AF8D4F89C21D4F8A8310020934208
:10536000C4F8C800C4F8AC0124D928462146FBF78C
:10537000D0F8D4F89C61D4F8A801864221D200BFAD
:105380002046002100F020F8D4F8A801D4F89C3180
:10539000821B9A4205EB060010D921461A46FBF7FC
:1053A000B8F8D4F89C01D4F8A81106448E42E7D38B
:1053B00007E000BF284621461A4600E02146FBF7D9
:1053C000A8F8002070BD00002DE9F04FEDB0864632
:1053D000D0F8AC0111B9002840F07C870028704655
:1053E000CDF8E4E000F01281002900F00D81399839
:1053F000D0F898815FEAD80000F00681399AA0F1D0
:10540000010CD2F89C21BCF1030F4FEAD20700F047
:10541000030E05D20023BEF1000F3BD171E000BFA7
:1054200020F003093AA801F1100500F11004002052
:105430000346B84203F1010032BF55E904260022B9
:105440000026B84244E9042600F1010032BF55E9C4
:10545000022600220026B84244E9022600F101009B
:1054600032BFD5E9002600220026B842C4E9002652
:1054700000F1010032BFD5E9022600220026C4E96E
:1054800002262035484504F12004D1D10433BEF171
:10549000000F36D0BB4205D201EBC30251F83300F6
:1054A000526801E0002000223AAE06EBC304BEF1D0
:1054B000010F46F83300626023D0581CB84205D271
:1054C00001EBC00451F83020646801E000220024A0
:1054D00006EBC005BEF1020F46F830206C6010D01C
:1054E000981CB84206D201EBC00251F83010526845
:1054F00002E000BF0021002206EBC00346F8301096
:105500005A60BCF1030F05D20021BEF1000F41D15A
:105510007AE000BF3AA8A0F1200139980022A0F15A
:1055200020036FF0030000EAD800C0F1000CCDF8B2
:10553000E0E000BF53F820BF51F8209F03F1040EB4
:10554000D1E9015A9EE85140D1E9037868408BEADD
:10555000090584EA0A04C3E900509C604C695D694E
:1055600086EA0700D86085EA04008EEA0807C3E9E6
:105570000470D1E90607D3E90656043A774068403B
:1055800094459861DF61D5D1DDF8E0E05142BEF18C
:10559000000F39D0399C3AAA02EBC10004EBC107D5
:1055A00052F8313040687E6854F8315070406B409A
:1055B000BEF1010F44F83130786025D0481C02EB71
:1055C000C0035F68399B52F830C003EBC0067568B2
:1055D00053F830407D4084EA0C07BEF1020F43F8D7
:1055E0003070756010D0399D881C02EBC00105EB4E
:1055F000C00352F8302049685F6855F83060794040
:10560000724045F830205960DDF8E4E0DEF8A4117E
:1056100000290846029100F05D863AA828300190E2
:10562000DEF80800DEE900133590DEF80C00DEE954
:1056300028B63890DEE90A02DEE92E982E90DEF8D0
:10564000540000271990DEF850002490DEE91E0473
:105650001B90DEF834003690DEF830003290DEF831
:105660005C002D90DEF858002B90DEF8840023902B
:10567000DEF880001090DEF8AC000C90DEF8A80098
:105680000E90DEF814003790DEF810003490DEF84B
:105690003C003390DEF838003190DEF864002C9046
:1056A000DEF860002890DEF88C002290DEF888009A
:1056B0001F90DEF8B4000F90DEF8B0000D90DEF819
:1056C0001C002A90DEF818002990DEF8440027908C
:1056D000DEF840002190DEF86C002090DEF86800D3
:1056E0001E90DEF894001890DEF890001A90DEF814
:1056F00024002F90DEF820003090DEF84C0025903A
:10570000DEF848002690DEF874001C90DEF8700089
:105710001D90DEF89C001690DEF898001790DEE9E8
:10572000300A0B90CDE912B282EA03002E9A099159
:105730005140249A0893199B51401B9A584051405C
:10574000604080EA060381EA0B0C219829992A9A85
:1057500048401E99CDE9144648402799209E514063
:105760007140189E0A9771401A9ECDF81C807040B7
:1057700080EA0907580081EA080640EADC714FEA2E
:105780004C0040EAD37087EA000286EA0100CDE9C6
:10579000056303908AEA00060B98049280EA0205EA
:1057A00025992F9ACEE9305681EA02051C99309A44
:1057B0004D401699379B4D40269985EA0A0881EAA3
:1057C00002051D99DDF830B04D401799CDF8449091
:1057D0004D4085EA0006319934982C9D81EA0002FB
:1057E000289932984A4033994B406B40229D0F993B
:1057F0006B401F9D6A400D9D82EA050A83EA010203
:105800004FEA4A0444EAD27484EA0C0E5400069922
:1058100044EADA7484EA010505994C0044EAD77336
:105820007F0047EAD17C3599369C41402B98414016
:10583000389844402D98444023984440109884EA76
:105840000B0441400E986700414047EAD1798CEA49
:10585000010C490041EAD47186EA01004FEA48018F
:1058600083EA040788EA090441EAD679760046EA21
:10587000D87686EA0A0389EA0201039E2F9ADDF8A8
:1058800068A072400692259A72400B921C9A724050
:105890002592169A56402F96049E309A7240059291
:1058A000269A724016921D9A72401D92179A56407F
:1058B0003096089E84EA0602139E089284EA060245
:1058C000199E139284EA0602149E199284EA060233
:1058D000159E1C9266402696099E80EA06022E9E20
:1058E000099280EA0602249E159280EA06021B9E17
:1058F000179280EA0602129E249270402E903898E9
:1059000085EA00083698684014902D9868401B90EE
:10591000239868402D9085EA0B00389035988EEAE0
:105920000005329880EA0E0012902B9880EA0E0053
:105930002B90109880EA0E0032900E9880EA0E00AC
:105940003690379887EA000E339887EA000B2C9838
:10595000784023902298784033900F987840379081
:1059600034981E9F8CEA000931988CEA000628982A
:1059700080EA0C0028901F9880EA0C0031900D9866
:1059800080EA0C0035902A9883EA070C81EA00022D
:10599000279883EA0A0781EA0004209848402A9061
:1059A000189848402C90079848403490299821999D
:1059B0002997119F5840594083EA070A399B099F4C
:1059C0001F60399B089F5F60399B9D60399BC3F8BE
:1059D0000C80DDF8E480C8E90602059808F134027D
:1059E000C8F820000698C8E91014C8F824001598D3
:1059F000A021C8F828001398C8E9049EC8F82C0014
:105A00001298C8F83000149882E841081698C8F82F
:105A100048000B98C8F84C001798C8F8500019981F
:105A2000C8F854002B98C8F858001B98C8F85C00B8
:105A30002898C8F860002398C8E9190C2A98C8F873
:105A40006C001D98C8F870002598C8F87400249858
:105A5000C8F878001C98C8F87C003298C8F8800014
:105A60002D98C8F884003198C8F888003398C8F891
:105A70008C002998C8F890002C98C8F894003098A9
:105A8000C8F898002F98C8F89C002E98C8F8A00075
:105A90002698C8F8A4003698C8F8A8003898C8F81E
:105AA000AC003598C8F8B0003798C8E92D0A34988A
:105AB000C8F8BC000198FAF7C5FD98E88F000DF111
:105AC000E80CD8F81C408CE88F00D8E90801D8E928
:105AD000056549F6787BCDE94140439100204FF0C0
