:020000040800F2
:100000001840002039030008E93A0008753A000852
:10001000E53A0008551700081573000800000000B5
:10002000000000000000000000000000955A0008D9
:10003000051B0008000000004D4A0008995A0008FE
:100040005303000853030008530300085303000838
:100050005303000853030008530300085303000828
:10006000211B000853030008530300085303000832
:100070005303000853030008530300085303000808
:1000800053030008530300085303000853030008F8
:1000900053030008530300085303000853030008E8
:1000A000530300085303000853030008BD5A000817
:1000B000CD5A0008DD5A0008ED5A00085303000825
:1000C00053030008530300085303000853030008B8
:1000D00053030008530300085303000853030008A8
:1000E000091B0008530300085303000853030008CA
:1000F000815F000853030008715F00085303000884
:100100005303000853030008FD5A00085303000876
:1001100053030008530300080D5B0008615B0008EF
:100120005303000853030008530300085303000857
:100130005303000853030008530300085303000847
:10014000530300085303000853030008653B0008ED
:100150005303000853030008530300085303000827
:100160005303000853030008530300085303000817
:100170005303000853030008530300080000000065
:10018000530300085303000800F002F800F0AAF837
:1001900014A696E8000CB244B344DA4501D100F04D
:1001A000A1F8BAE80F000FA696E83000A5EB040509
:1001B00004EB0607AAEB0704A7F101074FEA1515A0
:1001C0004FEA3414A4F10104AC4201D300F08AF8E0
:1001D00013F0010F18BFFB1A43F0010300F001F800
:1001E000DBE7184720E2000040E20000103A24BF9D
:1001F00078C878C1FAD8520724BF30C830C144BF8C
:1002000004680C6070470000704700000023002461
:1002100000250026103A28BF78C1FBD8520728BF16
:1002200030C148BF0B6070476E2900F0958170297E
:1002300000F0D78266290DF01C8765290DF019871B
:1002400067290DF0168761290DF0158703681B0AD1
:1002500028BF41F08001692900F04281642900F043
:100260003F81752900F03C816F2900F06582782973
:1002700000F0A382E92900F0FF81E42900F0FC816D
:10028000F52900F0F981EF2900F06282F82900F0E9
:10029000A2820368DB0928BF41F08001632900F0D6
:1002A000A387732900F0A887E32900F0B387F32917
:1002B00000F0B887002070471FB50DF0C8FE00F0B1
:1002C00082F801F005F80400002000210DF042FA48
:1002D000401C6060002000210DF026FAE0601FBD88
:1002E00010B510BD00F0C6FF1146FFF7E5FF07F09F
:1002F000CBFA01F0A3F803B4FFF7F2FF03BC01F05F
:10030000EBF800000B49D1F800C04A685CF8043BE8
:100310001068184442F8040B8C4528BFA1F1DC0C8E
:100320008A4228BFA1F1DC02C1F800C04A6020F077
:1003300000407047CC010020094880470948004729
:10034000FEE7FEE7FEE7FEE7FEE7FEE7FEE7FEE785
:10035000FEE7FEE704480549054A064B70470000E2
:10036000A95A00088901000818340020184000200C
:1003700018380020183800201CB50C46064B7B446A
:1003800069460090204600F000F9044600206946C6
:1003900000F00EF920461CBD2F0200000B4910B5DD
:1003A000A1F17C020A4CC2E93712372106E000EBCA
:1003B000104342F82130074B00FB03400B1EA1F114
:1003C0000101F4DC10BD0120E8E700006C01002011
:1003D000E119D666CD0D010010B5431C02E010F8FE
:1003E000011B71B18107FAD14FF0013202C88C1A9A
:1003F0008C4314EAC211F9D0C01A0A0603D0C01EF9
:1004000010BDC01A10BD0A0401D0801E10BD090223
:10041000FCD0401E10BD70477047704770B5044651
:1004200085690068C10601D5302600E02026C00796
:1004300007D070BDD4E9012130469047206A401CA6
:1004400020626D1EF6D570BD70B5044685690078D2
:10045000C00707D170BDD4E9012120209047206A50
:10046000401C20626D1EF6D570BD09684A0501D595
:1004700040B27047C905FCD500B2704709684A050B
:1004800001D5C0B27047C905FCD580B2704770B5C0
:100490000C460546012A05D02878800600D5EA6971
:1004A000002302E0012305E05B1C934202D2E05CE2
:1004B0000028F9D1A869E618C01AA861286A18446A
:1004C00028622846FFF7AAFF04E0D5E9012114F8C5
:1004D000010B9047B442F8D32846FFF7B5FF70BD33
:1004E0002DE9F0410646002410687529314616A50D
:1004F00010D0FFF7BAFF002802DA404213A507E048
:1005000031688A0701D512A502E0490704D511A573
:10051000012401E0FFF7B2FF00210A2206F12407BF
:1005200009E0B0FBF2FCB0FBF2F302FB1C00303040
:1005300078541846491C0028F3D123462A463046F1
:10054000BDE8F04100F061BA000000002D0000009D
:100550002B0000002000000011680268006A5305AB
:1005600001D508700AE0D30501D5088006E013061E
:1005700003D5C217C1E9000200E0086001207047FE
:1005800001694A1C02610878704700B58FB0CDE957
:1005900001310021059105497944CDE90310114647
:1005A000684600F029F90FB000BD0000E5FFFFFF2D
:1005B0000A6802F8010B0A60704700002DE9FF5F2E
:1005C00015468A460446DFF8AC80F8440027D8E98F
:1005D00000103E46CDE9001010E03AF816106A46C9
:1005E00002A800F023FE411C07D02178890603D51C
:1005F000E269391891420DD80744761C20788006AC
:1006000002D5E069B84205DDAE42E6DB3AF81600F5
:100610000028E2D1A069C01BA0612046FFF7FEFEC2
:10062000D8E90010CDE90010002017E03AF81810C2
:100630006A4602A800F0FAFDB0F1FF3F81460BD0F8
:1006400000250DF1080B05E0D4E901211BF8050098
:1006500090476D1C4D45F7D308F10100B04280462C
:10066000E4DB206A384420622046FFF7EDFEBDE857
:10067000FF9F0000AEDA00002DE9F0418046D21D58
:1006800022F007020025D2E90002F52915A614D0B0
:10069000011E72F1000106DA0023D0EB030063EBC8
:1006A000020211A608E0D8F800108B0701D50FA6AA
:1006B00002E0490701D50EA601251146002408F1E4
:1006C000240704E000F05CF930323A55641C50EA2B
:1006D0000102F7D12B46324621464046BDE8F041A3
:1006E00000F093B9000000002D0000002B00000076
:1006F0002000000030B4002100F1240408E002F0E2
:100700000705D208303542EA4372DB086554491CBC
:1007100052EA0305F3D10468002310A2250708D587
:1007200004F020040C4304D0C46901230CA2641E0D
:10073000C46130BC00F069B910B5044621461068A8
:10074000FFF79CFE02462046BDE810400023D1E79B
:10075000D21D22F00701D1E90023CBE70000000001
:1007600030000000F0B40D460188090502D5214C87
:100770007C4402E01F4C7C440E34002100F124062E
:1007800008E002F00F071209E75D42EA03721B0955
:100790007754491C52EA0307F3D102780023120769
:1007A00004D5702D06D009B1022311342246F0BCC5
:1007B00000F02BB901231034F8E770B504460D465C
:1007C00021461068FFF75AFE024629462046BDE83A
:1007D00070400023C6E7D21D22F00703D3E90023AF
:1007E000C0E70368126843F0200303600823C36175
:1007F0000023B7E710D900002DE9F05F89460446D1
:100800004FF0000ADFF874B1FB44C0F820A0204686
:10081000E1688847002874D0252806D0D4E9012152
:100820009047206A401C2062F1E700265F46204680
:10083000E16888472028054607DB312D05D2781965
:1008400010F8200C08B10643F1E7B00701D526F0F7
:100850000406C4F81CA00027C4F818A02A2D09D04B
:1008600028460CF059FF38B304EB8708303DC8F830
:10087000185019E059F8041B204604EB87029161D7
:10088000E1688847012F054618D1E069002820DA81
:1008900026F020061DE0D8F8180000EB800005EBDC
:1008A00040003038C8F818002046E16888470546FF
:1008B0000CF032FF0028EED1012F0AD02E2D08D1E6
:1008C0002046E16888477F1C0546022F46F0200637
:1008D000C4DBA069002803DA404246F00106A061AB
:1008E000F00701D026F010066C2D0BD0682D09D032
:1008F0004C2D39D06A2D35D0742D35D07A2D33D08A
:1009000016E038E0E1682F4620468847B8420546A1
:1009100009D16C2F26D04FF48060E1680643204651
:100920008847054604E06C2F1AD04FF480700643C8
:100930000DB3A5F14100192802D8203546F4006610
:100940004A462946204626604E46FFF76DFC80B198
:1009500001280BD0F61D26F0070000F1080956E724
:100960004020E4E78020D8E70020D6E706F104091C
:100970004DE7284652E7206ABDE8F09FA0D8000066
:1009800030B5B0F10A0271F100034FEA900E4EEA61
:10099000817EB0EB0E0061EB91014FEA101E4EEA32
:1009A000017E10EB0E0041EB11114FEA102E4EEAC2
:1009B000016E10EB0E0041EB11214FEA104E4EEA92
:1009C000014E10EB0E0041EB1141401841F10001C6
:1009D0004FEAD00040EA41704FEAD1014FEA81046A
:1009E00044EA907410EB800544EB01046D1944EB6C
:1009F0000404521BA3414FF0000348BF0A3200D544
:100A000030BD401C41F1000130BD2DE9F0470D46DD
:100A100099469246044600F124080168880604D5E8
:100A2000E06921F01001216000E00120A84201DD11
:100A3000471B00E00027A1697A1902EB0900081A98
:100A4000A0612078C00602D42046FFF7E7FC00260C
:100A500008E0D4E901211AF806009047206A401CFA
:100A6000761C20624E45F4DB2078C0060AD520466D
:100A7000FFF7D4FC06E0D4E9012130209047206A3A
:100A8000401C2062381EA7F10107F4DC07E0D4E91E
:100A9000012118F805009047206A401C2062281E9A
:100AA000A5F10105F3DC2046FFF7CEFC2078000617
:100AB00002D50220BDE8F0870120FBE72DE9FF4FBA
:100AC0000C461E464FF0FF378BB0D2E90001DDF82F
:100AD00060800A908A46C1F30A5505B93D46002157
:100AE00008464FF00000BAF1000F00F4400005DAAC
:100AF00000EB80004FF4400101EA50004FEA9059AA
:100B0000B9F1010F00DDB9460A9850EA4A000ED04B
:100B100044F61050A5F2FF3545432F14B8F1000FED
:100B20001ED07542291E1EDDC9F100021CE0B8F17D
:100B3000010F4FF0000001D0302103E0F24305E047
:100B40002154401CB042FBDB3046002200212154DE
:100B50000B99C1F80880C1E900200FB0BDE8F08F03
:100B6000BD1B6D1CDEE74A4600DA694206A800F0AC
:100B7000F3FB06AB93E8070003AB83E8070050469E
:100B80000A990CF0E8F98DE80700A0F500501F382D
:100B900000900398002D0ADD42F21F014A460844E6
:100BA000002303A9039068460CF052FC09E0A0F56D
:100BB00000504A461F38002303A9039068460CF0F2
:100BC0005CFC8DE807000004000C03D04FF0FF3000
:100BD000410800E01046B8F1000F03D00022009257
:100BE00015461EE0751E05D4FFF7CAFE3032625569
:100BF0006D1EF9D5B3460122084302D000227F1CA6
:100C000004E02078302801D100227F1E002A0997B5
:100C100084D01DE0112D07DAFFF7B2FE30326255A5
:100C20006D1C50EA0102F5D1084302D00098C8B10A
:100C30000EE00021681E05E0235C625C63542254D0
:100C4000401E491C8142F7DBAB46A81B401E0990A1
:100C5000002004F80B000B98099AC0F80880C0E93E
:100C6000002B7AE711264FF0000857E72DE9F04FE7
:100C700088460446D21D22F0070191B0D1E9000157
:100C8000CDE90A010CF030FD02460B98C00F01D0EF
:100C90002D2007E02068810701D52B2002E02021CC
:100CA00001EAC000032A099001D0072A05DB0346A8
:100CB0004146204600F010FB0BE12078800601D56C
:100CC000E06900E00620B8F1650F814606D0B8F172
:100CD000660F18D0B8F1670F70D131E00020B9F17C
:100CE000110F009001DB112301E009F101030AAAB1
:100CF00001A90CA8FFF7E2FEDDE90C70002609F15E
:100D00000105834647E001204B4600904FF0004725
:100D10000AAA01A90CA8FFF7D1FEDDE90DB00C99D4
:100D20005D46002610B909F101000D18B9EB050068
:100D300003D4C0F1FF3609F10105A5EB09002BE052
:100D4000B9F1010F01DA4FF001090020B9F1110FDB
:100D50000090484601DD112300E003460AAA01A9DC
:100D60000CA8FFF7ABFEDDE90C704D46002683466C
:100D7000207800070AD4AB4500DA5D4601A8012DB2
:100D800004DD411911F8011C302907D04F4502DA62
:100D900017F1040F04DA012082460FE06D1EEEE722
:100DA000002F02DCED1B3E4403E0781CA84200DD6E
:100DB0007D1CB81B00F1010A4FF0004720780007A6
:100DC00003D4AA4501DB4FF0FF3A0021B7F1004FF1
:100DD0000DF143088DF8431024D002202B23002F5F
:100DE00001DA7F422D230A21021EA0F1010000DC5E
:100DF0005FB197FBF1FC97FBF1F201FB1C7C1746FE
:100E00000CF1300C08F801CDEEE7A8F101000370F9
:100E10002188090501D5452100E06521A0F10108DF
:100E200000F8011C09980FA9A1EB0807FF1D00B1EC
:100E30000120411901EBEA70A1693844081A401EEB
:100E4000A0612078C00602D42046FFF7E7FA09988F
:100E500028B1D4E901219047206A401C2062207803
:100E6000C00622D52046FFF7D9FA1EE0002E04DB8B
:100E7000B34502DD01A8805D00E03020D4E9012106
:100E80009047206A401C2062761CAAF101005FEAAC
:100E9000000A0AD100F01CFAC0680168405CD4E97D
:100EA00001219047206A401C2062281EA5F10105FF
:100EB000DCDC07E0D4E9012118F8010B9047206A37
:100EC000401C2062381EA7F10107F3DC2046FFF723
:100ED000BBFA032011B041E62DE9F04F04460D4660
:100EE000D21D22F0070089B0D0E900974846394664
:100EF0000CF0FAFB0246F80F01D02D2307E0206822
:100F0000810701D52B2302E0202101EAC0038DF8DF
:100F100020300BB1012000E00020032A824601D0DE
:100F2000072A04DB2946204600F0D6F93FE1207865
:100F3000800601D40D2500E0E569C7F30A560D2DA2
:100F400049DA00214FEA175B08464FF00000002FF6
:100F500000F4400007DA00EB80004FF4400100EBA2
:100F6000D07001EA60008115012901DD4FF0FF31E9
:100F700000224FEA850CBCF1180F06D31346ACF1E2
:100F800018004FF08052C24003E04FF4801323FA60
:100F90000CF30CF10C0CBCF1200F04D3ACF1200CC1
:100FA00009FA0CF001E007FA0CF000294FF00048B4
:100FB00001DD18B90FE00ED140450CD319EB020941
:100FC0005F4121B9404502D19F4329EA0209BBEBA9
:100FD000175F00D0761C2088000502D57B48784436
:100FE00002E07A487844193808AA302302F80A3017
:100FF000037C0AF10101002E0AF1020A53546A46E9
:1010000002DC4FF0300101E04FF031014FF00108F8
:101010008DF8001002D0A6F2FF3603E059EA47012E
:1010200000D06B4E002D02DC2178090704D54FF06B
:1010300002082E218DF80110C44600210BE0C7F3F1
:1010400003433F01C35C491C6D1E02F808300529AB
:1010500008F1010801DA002DF1DC00210CE000EBC1
:101060001973491C1B786D1E082902F808304FEAD5
:10107000091908F1010801DA002DF0DC21688B065E
:1010800002D516E0A8F10108E04505DD02EB0803F2
:1010900013F8013C302BF5D0B8F1000F09DD02EB5D
:1010A000080313F8013C2E2B03D1090701D4A8F142
:1010B0000108002D05DD3E2102F808106D1E08F123
:1010C0000108407C002E02F8080008F1010804DA4B
:1010D0002D20764202F8080002E02B2002F80800DA
:1010E0000A214FF47A70864208F101080BDB96FB67
:1010F000F0F3303302F8083096FBF0F308F1010802
:1011000000FB136601E0642E0CDB642096FBF0F319
:10111000303302F8083096FBF0F308F1010800FBC9
:10112000136601E00A2E06DB96FBF1F0303002F880
:10113000080008F1010896FBF1F001FB1060303067
:1011400002F80800A16908F1010808EB050202EBAA
:101150000A00081AA0612078C00602D42046FFF7D2
:101160005DF9216A08AE01EB0A00206204E0D4E9CF
:10117000012116F8010B9047BAF1010AF7D2207845
:10118000C00602D52046FFF749F96E4609E016F879
:10119000010B3E280FD0D4E901219047206A401C62
:1011A0002062B8F10108F2D22046FFF74DF909B0EC
:1011B0000320BDE8F08F206A2844206203E0D4E9D0
:1011C0000121302090476D1EEBD3F8E7EED00000F0
:1011D00002FCFFFF10B5436913B1AFF3008001E0DB
:1011E000FFF755F9012010BD127800F124010A70B3
:1011F00000224A700122EDE711684FF0FF32E9E763
:1012000010B5436913B1AFF3008001E0FFF7D6F9E1
:10121000012010BD128800F1240182840022C284C2
:101220000122EDE711684FF0FF32E9E72DE9F041C7
:1012300016460C46054600F043F8036893F8010192
:10124000012807D0FF2C12D8185D80B101202C7026
:10125000BDE8F081D3F807013246214603F20713B7
:10126000C7182846BC46BDE8F041002360474FF050
:10127000FF30EDE7754600F0EBF8AE460500694635
:10128000534620F00700854618B020B5FFF762F8F6
:10129000BDE820404FF000064FF000074FF0000877
:1012A0004FF0000BAC46ACE8C009ACE8C009ACE8B4
:1012B000C009ACE8C00921F007018D467047000065
:1012C00010B500F005F8001D10BD00BF89C4000076
:1012D00000487047F40100202DE9F0411F46044604
:1012E00003260168072A01F4006004DB08B116A593
:1012F00005E016A503E008B115A500E015A521F04D
:1013000010002060A069C01EA0610FB1401EA06146
:101310002046FFF783F84FB1D4E9012138469047C2
:10132000206A401C2062C01C206206E0206AFAE7A6
:10133000D4E9012115F8010B9047761EF8D220461A
:10134000FFF782F8BDE8F0814E414E006E616E00FD
:10135000494E4600696E66002DE9F0478146164603
:101360008AB0354878440DC88DE80D00324878447D
:10137000801C03AC0DC884E80D0041F69B30084486
:10138000372190FBF1F290FBF1F5A5F1800501FB0F
:1013900012041B3C02D56442012000E00020DFF86B
:1013A00098A080460027FA44AAF1BE0A0EE0E007A2
:1013B0000AD03246684607EB470101230AEB810158
:1013C0000CF05BF88DE8070064107F1C002CEED158
:1013D000194F7F44AE3F19E0E80715D007EB041022
:1013E0000DF1180A90E80E008AE80E00C068F0427D
:1013F00001D1981908903246012306A903A80CF0E0
:101400003CF803AB83E807006D10641C002DE3D1AA
:101410004FF0010332466946B8F1000F03A802D02D
:101420000CF016F801E00CF028F8C9E90001C9F841
:1014300008200AB0BDE8F087F8CD000010B50446DA
:10144000AFF300802046BDE81040FEF754BF000017
:1014500000487047D401002030B44FF0013C50F8F0
:10146000042B51F8043BCCFA52F4D51A20D1FCB924
:1014700050F8042B51F8043BCCFA52F4D51A17D18A
:10148000B4B950F8042B51F8043BCCFA52F4D51AF5
:101490000ED16CB950F8042B51F8043BCCFA52F43D
:1014A000D51A05D1002CDAD030BC4FF000007047BF
:1014B00029BAB1FA81F111F01801D1F1200084406C
:1014C000F2D1CA40CB4012F0FF0213F0FF0330BC50
:1014D000D01A70477047000001491820ABBEFEE7E4
:1014E0002600020053EA020C00F069802DE9F04B5F
:1014F0004FF00006002B1FBFB3FA83F503FA05F483
:1015000024FA05F65E4012BF1643B2FA82F502FADB
:1015100005F4C5F120051EBF22FA05FC44EA0C04BF
:10152000203556EA044C4FEA144418BF641C4FF0AF
:1015300000084FF00009904271EB030C39D30029E9
:1015400019BFB1FA81F701FA07F6B0FA80F700FA8D
:1015500007F6C7F120071EBF20FA07FC46EA0C0673
:101560002037B6FBF4FCA7EB0507103F07F01F0B75
:10157000CBF120062CFA06F60CFA0BFB44BFB3465F
:101580000026202FA4BF5E464FF0000B5BEA060C3E
:1015900008BF4FF0010B19EB0B0948EB0608ABFB3A
:1015A000027C06FB02CC0BFB03CCC01B71EB0C01D5
:1015B000C1E70B46024641464846BDE8F08B13B5ED
:1015C000084318BF4FF0FF300146AFF30080BDE87D
:1015D0001C407047032A40F2308010F0030C00F0EA
:1015E000158011F8013BBCF1020F624498BF11F85D
:1015F00001CB00F8013B38BF11F8013BA2F1040216
:1016000098BF00F801CB38BF00F8013B11F003038D
:1016100000F02580083AC0F0088051F8043B083AF1
:1016200051F804CBA0E80810F5E7121D5CBF51F893
:10163000043B40F8043BAFF30080D20724BF11F80D
:10164000013B11F801CB48BF11F8012B24BF00F872
:10165000013B00F801CB48BF00F8012B704710B5E3
:10166000203AC0F00B80B1E81850A0E81850B1E85B
:101670001850A0E81850203ABFF4F5AF5FEA027C9A
:1016800024BFB1E81850A0E8185044BF18C918C0CA
:10169000BDE810405FEA827C24BF51F8043B40F86B
:1016A000043B08BF7047D20728BF31F8023B48BF50
:1016B00011F8012B28BF20F8023B48BF00F8012B8E
:1016C00070474FF000020429C0F0128010F0030CA4
:1016D00000F01B80CCF1040CBCF1020F18BF00F825
:1016E000012BA8BF20F8022BA1EB0C0100F00DB8D4
:1016F0005FEAC17C24BF00F8012B00F8012B48BF32
:1017000000F8012B70474FF0000200B513469446D5
:101710009646203922BFA0E80C50A0E80C50B1F149
:101720002001BFF4F7AF090728BFA0E80C5048BF5D
:101730000CC05DF804EB890028BF40F8042B08BFFB
:10174000704748BF20F8022B11F0804F18BF00F8F7
:10175000012B7047FEE70000002070470020704713
:1017600041F66830C2F20000D0F8D41200EB8101DB
:10177000D1F8C00298B140F65862C2F2000201F5F9
:101780003071C0F80822096800220029C0F8102230
:101790001EBF40F25860C2F20000C1F804020020EF
:1017A000704700002DE9F04188B004460E684FF6FE
:1017B000FC6576A0CFF6FC6506F022F82068A8420A
:1017C00066D1082E67D3E088864264D1A1880029BB
:1017D00000F09480022940F0D480102E5BD3207B4F
:1017E00041F65835C2F200052871A068617B286077
:1017F00042F2EC60C2F200004FF0010840F61846D9
:1018000080F80080C4F202064FF400306971306045
:1018100025208DF80C008DF818104FF4803703A8A0
:101820000121376001F096FB06A8012101F092FB2F
:101830003020C6F800808DF80C0003A80121376025
:1018400001F088FB2846052101F084FB2A20C6F818
:1018500000808DF80C0003A80121376001F07AFBAD
:101860002846052101F076FBC6F80080E8782F793C
:1018700029786A78AB786D79CDE900074EF2DD30D2
:10188000C0F60000029505F0BBFF0220306002E0C8
:1018900043A005F0B5FF41F66830C2F20000D0F871
:1018A000D41200EB8102D2F8C01219B302F53072E3
:1018B000C1F804421168E9B1027CD0F8C802D1F83D
:1018C00004324027002A4FF0000208BF4FF400778F
:1018D000C0F88C228279C0E9A1370127012AA0F83B
:1018E000787204BFC0F89432012200F51E710068BE
:1018F00005F030FB002008B0BDE8F0811028CAD107
:10190000208961890130A289484380B282423AD15C
:1019100047F61820C1F6FF70006847F610210590C1
:1019200047F61420C1F6FF70C1F6FF710068096820
:101930004022CDE9031003A806A903F0E5FF43F216
:101940000C46C2F20006308801097E2911D842F601
:101950000C420699C2F20002131815500122996038
:101960000121C0F210029981002110305A60997350
:10197000308080B200F03CF800288CD1002030800C
:1019800089E713A085E70CA083E700BF5365726960
:10199000616C206D7367206465636F64652E0A0057
:1019A0004D6573736167652070726566697820653F
:1019B00072722E0A00000000496E76616C69642024
:1019C00072657175657374206D73672E0A0000006F
:1019D0004D6573736167652074797065206F7574E8
:1019E000206F662072616E67652E0A0000207047C6
:1019F00041F66831C2F20001D1F8BC22D2F81422BB
:101A0000002A1CBF01207047D1F8D42201EB8202CA
:101A1000D2F8C032A3B302F5307C42F60C42C2F2D7
:101A20000002C3F80822DCF80020C3F810023AB321
:101A3000D2F8140200284FF0010018BF7047C2F816
:101A40001402D2F81032D1F8C802D2F808C28B6260
:101A500040F20112014621F8382F0022C264827937
:101A6000C0F844C0012A836404BFC0F854C00122F6
:101A700080B5006805F06EFA0020BDE88040704730
:101A800003207047F0B581B0044600680D46C66873
:101A90000769BA070AD516F0020107D0406B29463C
:101AA0000BF06EF920686FF00201016179070BD528
:101AB00016F0040108D0806B691CC9B20BF060F904
:101AC00020686FF00401016139070BD516F0080199
:101AD00008D0C06BA91CC9B20BF052F920686FF096
:101AE00008010161F9060BD516F0100108D0006C51
:101AF000E91CC9B20BF044F920686FF010010161D4
:101B000001B0F0BD7047000080B54FF4804000F098
:101B1000A5F94FF40040BDE8804000F09FB90000F7
:101B200043F61440C4F201000168490744BF042190
:101B30000160704770B581B00022009290F83C209F
:101B4000012A01D102218FE00E6801220A2E80F8BD
:101B50003C2009D3B2B25200D0F800E012FA86F26B
:101B60001E3A0EF10C0305E0D0F800E006EB460249
:101B70000EF110034FF0070C1D680CFA02F4A54398
:101B80001D608D681C6805FA02F222431A604968DC
:101B900006290ED801EB81014A1F71461F2351F817
:101BA000345F934025EA03030B60B3B203FA02F2F9
:101BB00013E001EB81030C29B2B204D8714651F84D
:101BC000304F233B03E0714651F82C4F413B1F251A
:101BD0009D4024EA05059A400D600B6842F2043CE2
:101BE000C4F2010C1A43ACF541739E450A6038D12A
:101BF000122E06D1DCF8001041F48001CCF8001060
:101C00002FE026F0010110292BD1DCF80010102E56
:101C100041F40001CCF8001023D140F21C01C2F2C3
:101C2000000109684DF68362C4F21B32A1FB021267
:101C3000910C01EB810149000091009989B1009953
:101C400001390091009961B1009901390091009921
:101C500039B1009901390091009911B10099013908
:101C6000EAE7002180F83C10084601B070BD000092
:101C7000002804BF0120704710B586B00446006CF0
:101C8000002853D1216842F20012C4F20102002060
:101C900091420590049020D042F20000C4F201006D
:101CA00081423FD1002043F630010090C4F202018E
:101CB0004A6942F480724A614A6902F48072009271
:101CC000009A0090086840F004000860086800F07E
:101CD000040000900098072018E043F630010090BF
:101CE000C4F202014A6942F400724A614A6902F48C
:101CF00000720092009A0090086840F004000860AA
:101D0000086800F00400009000980620019003206D
:101D100002900020039040F60000C4F2020001A9E6
:101D200000F046FA0020606484F83C00206CC00695
:101D30003AD4206C41F202118843023042F204315D
:101D40002064C4F20101086820F4403008600A6889
:101D500094E809101A43D4F810E00A60416801239E
:101D600021F4807141604168C0F6007341EA0E21A0
:101D70004160416821F040714160416841EA0C01D5
:101D80004160816821F400618160E16882681143EB
:101D90008160A16A8268994222F0706282608268E2
:101DA00004D122F040510AE0012052E01143816049
:101DB000816821F040518160E16A8268114381604D
:101DC000816821F0020181608168227E94F82030D0
:101DD00041EA42018160416883B141F400614160A0
:101DE00041684EF2000221F460414160616ACFF621
:101DF000FF72436802EB4131194301E021F40061B5
:101E00004160C16A40F2000C21F47001C162E269D4
:101E10006169CFF6F07CC36A0CEB02521A43C262CE
:101E2000826822F40072826094F83020836843EA6A
:101E300042228260826822F480628260826842EA82
:101E40008121816000206064216C012262F3010124
:101E50002164002184F83C1006B010BD2DE9F04F3C
:101E60008DB043F61441C4F201010A68024200F049
:101E70007D81B0F5804F086000F09080B0F5004F94
:101E800040F07481762040F618448DF80400002755
:101E9000C4F202044FF4801501A801218DF82470CA
:101EA000256001F057F809A8012101F053F8102628
:101EB000AD20266025608DF8040001A8012101F005
:101EC00049F809A8012100F0ABFE02202660CDE907
:101ED0000177ADF804009F208DF830000CA8012197
:101EE000CDE90777CDE90577CDE90377256001F0E6
:101EF00031F809A80C2100F093FE2660BDF82400FB
:101F00009FEDA71AC0BA00EE100ABDF82600B8EE81
:101F1000C00AC0BA02EE100ABDF82800B8EEC22A04
:101F2000C0BA20EE010A22EE011A02EE100ABDF834
:101F30002A009FED9C3AC0BA8DED040A00EE100A0B
:101F4000BDF82C00B8EEC22ABDF82E108DED021A95
:101F500022EE031AC0BA8DED031A01EE100AC8BAB8
:101F600002EE100A9FED903AB8EEC22A22EE032A42
:101F70009FED8E3AB8EEC00AB8EEC11A21EE031AF0
:101F800020EE030A01A88DED051A8DED062A8DEDD0
:101F9000070A01F0ABFD0DB0BDE8F08F40F6184721
:101FA000C4F202074FF400303860072001AC8DF80E
:101FB00004004FF48036204601213E60012500F0E8
:101FC000C9FF09A8012100F02BFE3D609DF8248087
:101FD0005FEAC86006D45FEA886016D45FEA4860AA
:101FE0002AD4C1E027208DF8040010208DF82400A9
:101FF00001A801213E6000F0ADFF09A8012100F019
:10200000A9FF3D605FEA8860E8D527208DF80400CD
:1020100020208DF824004FF48030386001A8012181
:10202000012500F097FF09A8012100F093FF3D6012
:102030005FEA486040F1988042F2EF6B261D4FF452
:1020400080394FF0010A09ADC2F2000B5FEA486027
:1020500055D500BF61208DF8040020460121C7F846
:10206000009000F077FF5846202100F0D9FDC7F816
:1020700000A09BF800103FA005F0C2FB9BF80010E9
:1020800021B141A005F0BCFB27E000BF47F61820B6
:10209000C1F6FF70006800210B9047F61420C1F6CE
:1020A000FF700068C6E900110A9047F61020C1F6DB
:1020B000FF700068C6E9021131617161B1614FF0D2
:1020C00001110191099028460CA9202203F01CFC63
:1020D0000C980390204601F009FD27208DF804009C
:1020E00040208DF8240020460121C7F8009000F020
:1020F00031FF2846012100F02DFFC7F800A017206E
:102100008DF8040020460121C7F8009000F022FF5E
:102110002846012100F084FDC7F800A09DF82400A6
:10212000C00715D107208DF8040020460121C7F80B
:10213000009000F00FFF2846012100F071FDC7F864
:1021400000A09DF824805FEA48603FF583AFD6E7A2
:10215000E2208DF804004FF48030386001A801219E
:10216000012400F0F7FE3C60022038600DB0BDE8AD
:10217000F08F00BF4D6173736167652020636F64EA
:10218000653A25752E0A0000496E76616C696420F7
:10219000574C20636F64653A25752E0A00000000D5
:1021A00000008039000080B958A00B3A58A00BBA43
:1021B0002DE9F04F82B000F13E4707F1FF77860529
:1021C00046EA972741F60046C4F20206082243F683
:1021D000004EB04208BF0722C4F2010E072F38BFDD
:1021E0003A46002600274FF00008009209E000BFA1
:1021F00008F101080437B8F1100F06F1020600F0EB
:10220000A3800D68012202FA08F415EA0409EFD050
:10221000D1F804B003220BF0030CACF10105B2407D
:10222000012D6FEA020A0FD88268CD6802EA0A021D
:10223000B5402A4382604268A243CBF3001404FAFB
:1022400008F42243426005E0BCF1030F02D14FF0D5
:10225000030C1EE0C2688C6802EA0A02B440224302
:10226000BCF1020FC26014D16FF0030202EA5802FF
:102270000244D2F820C007F01C040F230D69A340CC
:102280002CEA0303A5402B431362D1F804B00BF0F2
:10229000030C02680CFA06F302EA0A021A431BF462
:1022A000403F0260A4D0002243F644030192C4F2EE
:1022B00002031A684FF6084C42F480421A601A680A
:1022C000CFF6FF7C02F480420192019A28F00302CB
:1022D000724452F80C3007F00C050F24AC40A343B5
:1022E000009C04FA05F52B4342F80C30DEF8082078
:1022F0004B6842EA090543F60C4CDC0258BF22EA5F
:102300000905CEF80850C4F2010CDCF800209C024C
:1023100042EA090558BF22EA0905CCF80050DEF868
:1023200004209C0342EA090558BF22EA0905CEF8B9
:102330000450DEF80020DB0342EA090558BF22EA18
:102340000905CEF8005053E702B0BDE8F08F000059
:1023500010B5014641F62870C2F20000D0F8E04402
:1023600079B194F89C02032818BF10BDD4F8B802C4
:10237000826992B300232046C4F8D432BDE81040ED
:102380001047D4F89402032827D1D4F85811B4F890
:102390006001814222D9D4F86421D4F8C832091AE4
:1023A00002EB000CC4F85811C4F864C1814288BF24
:1023B00008469A7903F515710024012AC3E998C0EB
:1023C000C3F86842A3F854422DD118680122C3F81B
:1023D00070C2BDE8104004F0BDBD10BD94F89C0271
:1023E000032808D1D4F8B802016921B10020C4F84B
:1023F000D402204688470420C4F89402D4F8C83296
:102400004FF480709A79194621F8140F0024012A9C
:102410001C625C629C6206D1186801221C63BDE8E4
:10242000104004F097BD1868BDE8104004F092BD5C
:102430002DE9F04782B041F62870C2F20000D0F8D2
:10244000E09490F89C4409F2AA2889F8AA4290F8EE
:102450009D5489F8AB5290F89EA490F89F144AEAD4
:102460000122A9F8AC2290F9A0C490F8A1745FFAF7
:102470008CF141EA0726A9F8AE62B0F8A234012037
:10248000A9F8B032C9F8940204F01F000228C9F874
:10249000983211D0012825D0C8BB14F0600042D07A
:1024A000402801D020284CD1D9F8D40209EB800073
:1024B000D0F8B80282680FE014F060006BD04028BA
:1024C00001D020283DD1D9F8B80282680020002A26
:1024D000C9F8D40200F0A0834846414602B0BDE8E6
:1024E000F047104714F0600018BF402818D199F841
:1024F0009C020138022898BFBCF1010F5FD920E08F
:10250000802104F0A5FCD9F8C802002103E0D9F825
:10251000C80204F0800102B0BDE8F04704F098BCA6
:102520002028E4D00DE0092D0BD8DFE815F00D00D0
:10253000AD000A00CD000A00D8001D010A003601D6
:102540005E01D9F8C802DBE799F89C02013802283D
:10255000F7D8022BF5D1D9F8A4020321002808BF2F
:10256000012149F80C1F0220C9F88802D9F8BC32B1
:102570004FF480721946C9F81890C9E9020021F891
:10258000142F9A790027012A5862C3F820909F627D
:1025900000F0268183E2E5B3012D62D0032DD0D176
:1025A00099F89C02032861D110041CD111F07F001E
:1025B00019D0C3B9D9F8C80204F04AFC13E0D9F81D
:1025C000B8028268002A00F027830020C9F8D402EC
:1025D000484641469047B9F8B012002940F01C83A4
:1025E000002840F019830420C9F89402D9F8C832B1
:1025F0004FF480701946002721F8140F1F629A7952
:102600005F62012A9F6240F04A82186801221F63BC
:1026100046E299F89C02032800F01781022808BFBF
:102620005FEA41607FF48DAF022049F8140F4B46FA
:10263000BCF1000F58BF03F5A073002603F80E6F1E
:10264000C9F88002D9F8B4724FF480723946C9F8DB
:102650001030C9F8040021F8142FBA793B6278626F
:1026600066E199F89C02032800F0218102287FF49A
:1026700068AFD9F8C8024A063FF442AF04F0E8FB5D
:10268000D9F8C802802146E799F89C02013802284F
:102690003FF657AF90B2012840F0BE8200230420DD
:1026A000C9F8A432C9F89402D9F8C8724FF48070FE
:1026B000BA79394621F8140F012A3B627B62BB626A
:1026C00000F03A813868EBE190B2022800F00B810B
:1026D00001287FF436AF0120C9F8A40283E7002E59
:1026E00008BF002B7FF42DAF90B27F283FF629AFB3
:1026F00099F89C0203283FF424AFD9F8C80289F85E
:102700009EA290F89414012913D080F811A00168BA
:102710000AF07F03D1F8002822F4FE62C1F80028F5
:10272000D1F8002842EA0312C1F80028002180F8FD
:1027300094140421C9F894124FF48072014621F8D0
:10274000142F11F80E2C0023CB600B61012A4B6172
:1027500004BF03630122006804F0FCFBBAF1000F20
:102760000CBF0120022075E10020ADF80600B9F889
:10277000AC024FF0FF3101EB1021062900F2F2818B
:10278000DFE811F00700DE00EB00F001F001F800D7
:102790000401D9F8B4020268BBE1012B7FF4D1AE89
:1027A00099F89C02411E022980F0A880002049F877
:1027B000080F0221C9F88C12D9F8C03201274FF452
:1027C00080721946C9F81C90C9E9037721F8142FC3
:1027D0009A79C3F82090012A5F62986240F05F8185
:1027E00018680122C3F830905AE140F23425C2F251
:1027F0000005BAF1020F85F800A0BFF4A2AE99F867
:102800009C02032800F0D080022840F0FC80BAF13E
:10281000000F3FF4E8AED9F8B802C9F804A00028C8
:1028200000F001810268484651469047002800F0B8
:10283000FA80D9F8C802802104F00AFBD9F8C8024E
:10284000002104F005FB022004E101F00F0000EB81
:102850008000BCF1FF3F09EB8000D4BF90F823005B
:1028600090F8630100283FF46CAE01F07F0000EBAC
:10287000800009EB800000F11402BCF1FF3FC8BFEB
:1028800000F5AA72480631D0D9F8C8020CF07F01D1
:1028900001EBC10100EB810000F25621BCF1000FF9
:1028A00048BF00F11601087800B301201FE01004B2
:1028B00040F0B281480600F09181D9F8C8120CF0BE
:1028C0000F020879824200F2898102EBC20001EB1B
:1028D0008003BCF1FF3F40F3E88003F5157000274B
:1028E00083F85572E5E089F8A0727CE600209073C9
:1028F000022002F10E03C9F8940208E003287FF4D5
:1029000020AE022009F10403C9F894020120D9F88D
:10291000C8724FF480723946C9F82430C9F81400DF
:10292000C9F8180021F8142FBA79002678623B62A2
:10293000012ABE627FF4C6AE386801223B63AFE075
:1029400099F81010D9F8B80200290CBF816AC16A41
:102950000DF106008847022124E0C0B2052800F2EC
:102960000181DFE800F003C2C6CACED2D9F8B402B2
:102970004268CDE099F81000002840F0F380D9F8C3
:10298000B802416B0DF106008847C7E099F81000C6
:10299000002840F0E780D9F8B802016B0DF106007D
:1029A000884707214170B9E0BAF1000F57D0D9F834
:1029B000040050453FF417AED9F8B8124A68C1B2C6
:1029C00048469047D9F8B80229780028C9F8041079
:1029D0003FF409AE02684846904700283FF403AE32
:1029E000D9F8C802802104F033FAD9F8C8020021CE
:1029F00004F02EFAD9F8B80299F804104268484653
:102A00009047022026E0D9F8C802802104F020FA7D
:102A1000D9F8C802002104F01BFAD9F8B8022978C5
:102A2000426848465AE50420C9F89402D9F8C80219
:102A30004FF48072014621F8142F8279002303623B
:102A40004362012A836204BF03630122006804F029
:102A500081FA032089F89C0202B0BDE8F0870220C9
:102A600089F89C02D9F8B802002142684846C9F8A2
:102A700004A0002490470420C9F89402D9F8C83271
:102A80004FF480709A79194621F8140F012A1C62BC
:102A90005C629C6203D1186801221C6300E0186824
:102AA00002B0BDE8F04704F055BA012703F1140065
:102AB0005F7591F894740023012F8370027000F009
:102AC0008D8047780B685201012F1A4472D1D2F8D9
:102AD000003923F40013C2F80039007900F0FE0039
:102AE000022878D102F5106071E0D9F8B40282684A
:102AF0000EE0D9F8B402C2680AE0D9F8B40202695B
:102B000006E0D9F8B402426902E0D9F8B402826959
:102B100042B399F810000DF106019047B9F8B022C0
:102B20006AB3BDF80610E9B1914238BF0A460221E6
:102B3000ADF80620C9F89412D9F8C832C9E90522BF
:102B40005A629A794FF480771946C9F8240021F81F
:102B5000147F0027012A18629F6225D11A68186322
:102B600010461FE0D9F8C802802104F071F9D9F8A5
:102B7000C802002104F06CF902B0BDE8F08704201F
:102B8000C9F89402D9F8C8324FF480709A7919467E
:102B900021F8140F0027012A1F625F629F6203D190
:102BA00018681F63012200E0186804F0D3F902B02E
:102BB000BDE8F087D2F8003B23F40013C2F8003BD5
:102BC000007900F0FE00022805D102F530600268AD
:102BD00042F080520260002081F894040420C9F879
:102BE0009402D9F8C8024FF48072014621F8142FDC
:102BF0008279002404624462012A846204BF04636F
:102C00000122006804F0A6F9D9F8B802C9F8D44244
:102C10008268002A7FF460AC02B0BDE8F087000053
:102C200070B582B042F20C45C2F2000595F8512011
:102C3000012A40F03281002800F02F816C6843F2B5
:102C4000104EB4F5827FC2F2000E6DD1AA68002A40
:102C50006AD1042285F85120DEF8004095F8512011
:102C6000042A02D0012A40F0188195F85020012A48
:102C700000F01381012285F8502095F8512000239F
:102C8000042A1CBF052285F851206B65A863E987DB
:102C9000A9872863E9862A68A9862B646B64136870
:102CA0005B0603D4136843F040031360EB68B3F58D
:102CB000006F40F0A2800129844608D184463CF888
:102CC000023BD360C5F830C0EB8E013BEB8601239D
:102CD00005E000BFDEF80010A14240F0C480E98E9C
:102CE00019B9E98F002900F0DA80916889070CD5BD
:102CF000E98E51B1012B08D13CF8021B0023D160B1
:102D0000C5F830C0E98E0139E9869168C907E1D07C
:102D1000E98F0029DED0D168012320F8021BA863C7
:102D2000E98F0139E987D5E7DEF8002095F85030C2
:102D3000012B00F0B280012385F85030042385F880
:102D4000513000236B65A863A987E9872B63AB86A5
:102D5000EB86D5F808C02968BCF5004F2B646B647E
:102D600007D10B6823F040030B600B6823F480430A
:102D70000B600B685B0603D40B6843F040030B60E9
:102D8000EE68EB8F46B91BE0CB6820F8023BA863E6
:102D9000EB8F013BEB87EB8FEBB18B68DB07F3D15C
:102DA000DEF8003093425ED1EB8F002BF5D112E0BC
:102DB0000B7B00F8013BA863EB8F013BEB87EB8FAC
:102DC0004BB18B68DB07F3D1DEF8003093424AD178
:102DD000EB8F002BF5D1B4F5827F0CD1BCF5004F01
:102DE00002D0BCF5806F46D10868BCF5806F20F03A
:102DF000400008603FD101203EE00129844608D10F
:102E000084461CF8013B1373C5F830C0EB8E013BC0
:102E1000EB86012304E000BFDEF80010A14222D1BE
:102E2000E98E09B9E98FD1B3916889070CD5E98E8C
:102E300051B1012B08D11CF8011B00231173C5F8F7
:102E400030C0E98E0139E9869168C907E4D0E98F7D
:102E50000029E1D0D168012300F8011BA863E98FA4
:102E60000139E987D8E7012085F85100002085F86D
:102E7000500002B070BD8020002102F0A9FD28B1F1
:102E8000686D40F02000686520206865012085F8A5
:102E90005100002085F85000686D02B070BD02201E
:102EA0000121224602F094FD30B1686D40F020000F
:102EB000686520206865D9E740F21C00C2F2000076
:102EC000006849F68171C1F25E61A0FB0101480D05
:102ED0004FF47A71484301906868B0F5827F12D14F
:102EE00080200021224602F073FD0028DDD1A86871
:102EF0000028CBD1002000902868C168009180682C
:102F000000900098C2E7286801990029EFD0019944
:102F10000139019181680906E9D501990029E6D0B6
:102F200001990139019181680906E0D501990029CB
:102F3000DDD001990139019181680906D7D5019940
:102F40000029D4D001990139019181680906DBD4A7
:102F5000CDE7000070B582B043F2104C42F20C4550
:102F6000C2F2000CC2F20005DCF8006095F85130A6
:102F7000012B40F0808000287DD095F85030012B47
:102F800079D0012385F850300323002285F8513091
:102F90006A652863A986E986AA63AA87EA87AB6877
:102FA0002A64B3F5004F2B686A6407D11A6822F0CF
:102FB00040021A601A6842F480421A601A68520687
:102FC00003D41A6842F040021A606A680139EC685A
:102FD000B2FA82F2B1FA81F152094909B4F5006FEF
:102FE00041EA020111D131B130F8021BD9602863E6
:102FF000E98E0139E986E98E01B399688907F3D42E
:10300000DCF80010B142F6D010E031B110F8011B2D
:1030100019732863E98E0139E986E98E71B19968DF
:103020008907F3D4DCF80010B142F6D0012085F80E
:103030005100002085F8500002B070BD022001212F
:10304000324602F0C5FCC0B1686D40F020006865F2
:1030500020206865A86838B9002000902868C168F9
:103060000091806800900098012085F851000020B0
:1030700085F85000686D02B070BD40F21C00C2F2CD
:103080000000006849F68171C1F25E61A0FB010198
:10309000480D4FF47A71484301906868B0F5827F1B
:1030A00007D180200021324602F092FC0028CBD1CB
:1030B000D0E7286801990029CCD001990139019104
:1030C00081680906C6D501990029C3D00199013943
:1030D000019181680906BDD501990029BAD00199ED
:1030E0000139019181680906B4D501990029B1D04F
:1030F00001990139019181680906DBD4AAE7000032
:10310000002804BF012070472DE9F04387B0044632
:1031100090F83D00F8B1022084F83D002068211DA0
:1031200002F048FF012084F8460084F83E0084F84D
:103130003F0084F8400084F8410084F8420084F89D
:10314000430084F8440084F8450084F83D000020E2
:1031500007B0BDE8F083206840F6FF71C4F20001BB
:1031600088424FF0000184F83C100691CDE904112B
:10317000CDE9021179DC40F2FF71C4F2000188420E
:1031800000F3BB80B0F1804F00F0778140F2004146
:10319000C4F200018842BED1002743F630000197F7
:1031A000C4F202000169002541F0020101610169D8
:1031B000C4F2020501F00201019101990197016831
:1031C0000DF1080841F0010101600168022601F0DB
:1031D0000101019101990197016841F0020101602B
:1031E0000068414600F0020001900198C020029062
:1031F0002846CDE90367CDE90576FEF7D9FF032020
:1032000002A9C1C105F580604146CDE90576FEF70A
:10321000CFFF4EF60C50CEF2000000684FF0FF32A8
:10322000C0F3022080F00701042928BF04210338DD
:1032300002FA01F14FF0010338BF384623EA0101D9
:10324000814002FA00F023EA000008434EF21B41DD
:103250000001CEF2000188704EF20410CEF20000A0
:103260004FF0005140F8041C55E74FF6FF71C4F2CF
:103270000001884200F3A08041F20001C4F2000185
:10328000884200F0658141F20041C4F200018842A9
:103290007FF441AF002043F630010190C4F20201F7
:1032A0000A6942F020020A61096901F020010191D6
:1032B00001994EF60C51CEF200010968C1F30221CA
:1032C00081F00702042A28BF0422033938BF0146CF
:1032D0004FF0FF309040022222EA000088404EF278
:1032E0001B410001CEF2000108774EF20410CEF22D
:1032F00000004FF4000101600DE740F60001C4F248
:103300000001884200F0578140F60041C4F20001FC
:1033100088427FF400AF002543F630000195C4F2E7
:103320000200016941F008010161016901F0080131
:10333000019101990195016841F001010160006866
:1033400002A900F00100019001980F2002900220D4
:10335000CDE90305CDE905500020C4F20200FEF7D7
:1033600027FF4EF60C50CEF2000000684FF0FF32FF
:10337000C0F3022080F00701042928BF042103388C
:1033800002FA01F14FF0010338BF284623EA010198
:10339000814002FA00F023EA000008434EF21B418C
:1033A0000001CEF20001C8754EF20410CEF200000A
:1033B0004FF480210160AEE640F20041C4F2010109
:1033C000884200F04D810021C4F2010188427FF45F
:1033D000A2AE002543F630000195C4F20200416917
:1033E000012641F001014161416901F001010191B2
:1033F00001990195016841F010010160006802A97E
:1034000000F01000019001984FF4D4400290022087
:10341000CDE903050020C4F2020000F580500595B7
:103420000696FEF7C5FE4EF60C50CEF20000006880
:103430004FF0FF32C0F3022080F00701042928BFBB
:103440000421033802FA01F138BF284626EA0101B7
:10345000814002FA00F026EA000008434EF21B41C8
:103460000001CEF2000108704EF20410CEF200000E
:103470004FF0006140F8041C4DE6002743F6300091
:103480000197C4F202000169002541F001010161C8
:103490000169C4F2020501F001010191019901974E
:1034A00001680DF1080841F00101016001684FF069
:1034B000020901F0010101910199019701680126BA
:1034C00041F0020101600068414600F002000190F5
:1034D0000198202002902846CDE90397059706968B
:1034E000FEF766FE40F60840CDE9020905F580606A
:1034F0004146CDE904770696FEF75AFE4EF60C508B
:10350000CEF2000000684FF0FF32C0F3022080F0DE
:103510000701042928BF0421033802FA01F138BF4A
:10352000384626EA0101814002FA00F026EA00004E
:1035300008434EF21B410001CEF2000148704EF2EA
:103540000410CEF200004FF0805140F8041CE2E578
:10355000002043F630010190C4F202010A6942F0F2
:1035600010020A61096901F01001019101994EF6FA
:103570000C51CEF200010968C1F3022181F007026B
:10358000042A28BF0422033938BF01464FF0FF3018
:103590009040022222EA000088404EF21B410001C6
:1035A000CEF20001C8764EF20410CEF200004FF4C5
:1035B00080010160AFE5002543F630000195C4F2BB
:1035C0000200016941F004010161016901F0040197
:1035D000019101990195016841F0080101600068BD
:1035E00002A900F00800019001984FF47040029089
:1035F0000220CDE90305CDE905500020C4F2020008
:1036000000F54060FEF7D4FD4EF60C50CEF20000FF
:1036100000684FF0FF32C0F3022080F00701042958
:1036200028BF0421033802FA01F14FF0010338BF2B
:10363000284623EA0101814002FA00F023EA000053
:1036400008434EF21B410001CEF20001C8704EF259
:103650000410CEF200004FF0804140F8041C5AE5FF
:10366000002543F630000195C4F20200416941F0A3
:1036700002014161416901F0020101910199019545
:10368000016841F004010160006802A900F0040033
:10369000019001984FF4707002900220CDE903056B
:1036A000032006900020C4F2020000F5006005959A
:1036B000FEF77EFD4EF60C5CCEF2000CDCF800004E
:1036C0004FF0FF37C0F3022282F007030420042BDF
:1036D00028BF0346033A07FA03F34FF0010638BF49
:1036E0002A4626EA030303FA02F24EF21B431201B2
:1036F000CEF200034EF2041E5A74CEF2000E4FF4C6
:103700008051CEF80010DCF80010C1F3022181F0E6
:103710000702042A38BF1046033907FA00F038BF01
:10372000294626EA0000884007FA01F126EA01014D
:1037300008430001D8744FF48040CEF80000EAE45A
:1037400090F83C20012A4FF0020200F0C38080B5BF
:1037500080F83D20D0F800C04FF67772DCF80830D2
:1037600023EA0202CCF808200B684F2B28DC1F2B21
:1037700044DD202B45D0302B43D0402B40F0AC8093
:10378000D1F804E0C968DCF82030DCF8202022F011
:103790000102CCF82020DCF8182022F0F00242EAE6
:1037A000011123F00A0242EA0E02CCF81810CCF8FC
:1037B0002020DCF8081041F0470121F030017EE0C4
:1037C0006F2B26DDB3F5005F47D0B3F5805F78D06F
:1037D000702B40F08180D1E901E3C968DCF8082052
:1037E00043EA0E0322F47F4243EA01211143CCF85D
:1037F0000810DCF8081041F0770160E00BB1102BE5
:103800006AD1DCF8081021F07001194341F007017A
:1038100055E0502B34D0602B5ED1D1F804E0C9685C
:10382000DCF82030DCF8202022F01002CCF8202038
:10383000DCF8182022F4704242EA013123F0A002A1
:1038400042EA0E12CCF81810CCF82020DCF8081050
:1038500041F0670121F0100131E0D1E901E3C968CD
:10386000DCF8082043EA0E0322F47F4243EA0121F8
:103870001143CCF80810DCF8081041F480411EE038
:10388000D1F804E0C968DCF82030DCF8202022F010
:103890000102CCF82020DCF8182022F0F00242EAE5
:1038A000011123F00A0242EA0E02CCF81810CCF8FB
:1038B0002020DCF8081041F0570121F02001CCF85D
:1038C00008100022012180F83D10002180F83C10F2
:1038D000BDE88040104670470122F3E70168D1F847
:1038E0000CC00B699A0708D51CF0020205D06FF0D6
:1038F00002020A618A69002202775A0708D51CF081
:10390000040205D06FF004020A618A69002202777E
:103910001A0708D51CF0080205D06FF008020A61EA
:10392000CA6900220277DA0608D51CF0100205D019
:103930006FF010020A61CA6900220277D8071EBF21
:103940001CF001006FF001000861180605D51CF09D
:1039500080001CBF6FF080000861580605D51CF080
:1039600040001CBF6FF040000861980658BF7047C8
:103970001CF020001CBF6FF02000086170470000A1
:1039800090F83C20012A4FF0020200F0708010B540
:1039900080F83D200268D2F808C0D1E900E32CF09D
:1039A000770C23F0070444EA0C044FEA331344EA8B
:1039B0000E04072B4FF0010C946008D8DFE803F0E9
:1039C0004747474704091B2DBEF1050F32D101229D
:1039D00046E0D1F808E00969146A136A23F001038C
:1039E0001362936923F0F00343EA011124F00A0300
:1039F00043EA0E0329E0D1F808E00969146A136A62
:103A000023F010031362936923F4704343EA0131F6
:103A100024F0A00343EA0E1317E0D1E902E4096998
:103A2000936844EA0E0423F47F4344EA01211943D6
:103A300091600CE0136A146A24F001041462946922
:103A4000096924F0F00444EA011191611362D1681C
:103A500021F04001D160D16821F48041D160002281
:103A6000002180F83DC080F83C10BDE810401046B1
:103A700070470000FEE7000041F6D460C2F200008B
:103A800001684A6992072AD44A69520511D44A69E1
:103A9000920724D44A6952050BD44A6992071ED46E
:103AA0004A69520505D44A69920718D44A695205F1
:103AB000E7D50A6842F400720A606FF480624A61D6
:103AC00000212022016380F83D2080F83E10026C26
:103AD00042F00402026480F83C100120704700208C
:103AE00070470000FEE70000FEE70000F0B581B07F
:103AF00040F618450446C4F202054FF40030286031
:103B000007208DF801004FF480370DF101000121ED
:103B10002F600126FFF71EFA68460121FFF780F8A3
:103B20002E609DF80000C00709D0E1208DF802004A
:103B30000DF1020001212F60FFF70CFA2E60A0208A
:103B40008DF803000DF1030001212F60FFF702FA49
:103B500020462021FFF7FEF902202E60286001B0E8
:103B6000F0BD00002DE9F04F89B041F6287EC2F289
:103B7000000EDEF800B0DBF81400C00740F06287EA
:103B8000DBF81400DBF81810014200F05B87DBF86B
:103B90000808C0F30D20CEF8D404DBF81400DBF8DD
:103BA00018100840800705D5DBF8140000F002006B
:103BB000CBF81400DBF81400DBF818100BF50069E3
:103BC0000840C006584640F18C80DBF8180020F011
:103BD0001000CBF81800DBF82020C2F34340062881
:103BE00002F00F0141D00228584676D147F6F07016
:103BF00012EA0005584670D001EBC1000EEB8000C0
:103C000000F51873D0F860022A09042AC5F30117D9
:103C100047D34FF0FF3606EB9516032EC5F3811CF4
:103C200014D3AD0925F003054FF480545BF804600C
:103C3000043D06605BF8046046605BF804608660E3
:103C40005BF80460C66000F11000EFD1BCF1000F1A
:103C500027D04FF480555BF805600446BCF1010F96
:103C600044F8046B0FD120461BE04FF480505BF802
:103C70000030C2F30A12CEF89C345BF80000CEF894
:103C8000A004584620E05BF80560BCF1020F4660D6
:103C900001D1083005E04FF480565BF8066086607D
:103CA0000C3067B14FF480565BF80660012F067048
:103CB00005D0350A022F45701CBF370C8770186875
:103CC0008718DEF800001F6001EBC1010EEB8101D7
:103CD000D1F868321A44C1F86822816941F01001B4
:103CE000816141698269CDF818B011400903CDF8AE
:103CF000109040F16F81D0F81818D0F81C281140AE
:103D00000D0C00F0678143F20A090EF51D764FF4A1
:103D10003067C4F654794FF000081BE00BEB070046
:103D2000022181605FEA8A6042BF0BEB070020211D
:103D300081605FEA8A4042BF0BEB07004FF40051FD
:103D4000816008F101086D0807F1200706F12406DB
:103D500000F03C81E807F4D0DEF8000039188A68EA
:103D6000D0F8143803EA020A5FEACA726ED00BEB8D
:103D7000070201239360036C8A689EF80640012CB9
:103D800024D114072DD4940600F1BA8012F0280F24
:103D90005CD109F10104A34202D312F4004227D1FD
:103DA00032680969B7F5306F6FF3DF41A2EB0101AB
:103DB00046F80C1C41D1DEF86422002A00F0DE80B7
:103DC000DEF860020844CEF8600236E009F580743F
:103DD000A34210D110040BD4900644BF2020886069
:103DE0002BE009F10100834230D312F400402DD0C2
:103DF0004FF4004085E0B7F5306F1ED1DEF8641255
:103E0000D9B9016C494503D9D0F8001B002914D455
:103E10000021C0F8101BD0F8101B41F40021C0F89D
:103E2000101BD0F8101B41F01801C0F8101BD0F87F
:103E3000101B41F0C041C0F8101B5FFA88F0FEF77C
:103E400087FA41F6287EC2F2000E00BF5FEA0A70D0
:103E50005CD50BEB070008218160DEF8000009F15A
:103E6000010B046C384481685C4512D311F40041A5
:103E70000FD04FF400418160FEF7DAFA41F6287E58
:103E8000C2F2000E9EF80600DDF818B001280ED030
:103E90003CE0FEF7CDFA5C4541F6287EDDF818B02F
:103EA000C2F2000E32D39EF8060001282ED1DEF8B1
:103EB0000000016C494503D9D0F8001B002925D426
:103EC0000021C0F8101BD0F8101B41F40021C0F8ED
:103ED000101BD0F8101B41F01801C0F8101BD0F8CF
:103EE000101B41F0C041C0F8101B0EF29C41C0F8FD
:103EF000141BD0F8001B41F08021C0F8001B05E026
:103F0000202088605FEA0A70A3D400BF5FEACA601D
:103F100042BF0BEB0700102181605FEA8A707FF5DA
:103F200001AFDBF81400000604D50499486840F49A
:103F30008060486016F81D0C01287FF4EFAEDEF8B3
:103F4000E0040022D0F8D41206F81D2C00EB810109
:103F5000D1F8B81200293FF4E1AE90F89C22032A70
:103F60007FF4DCAE4A6A002A3FF4D8AE5FFA88F1EB
:103F7000904741F6287EC2F2000ECFE6016C49451B
:103F800004D9D0F8001B00293FF557AF0021C0F835
:103F9000101BD0F8101B41F40021C0F8101BD0F802
:103FA000101B41F01801C0F8101BD0F8101B41F095
:103FB000C041C0F8101B0EF29C41C0F8141BD0F891
:103FC000001B41F08021C0F8001B36E7DEF800003E
:103FD000DDF81090416982691140490340F1F08198
:103FE000D0F81818D0F81C2811401FFA81FBBBF13B
:103FF000000F00F0E58106984FF0000900F5106011
:1040000003900DE0D5F83408059A012191408843CA
:10401000C5F834085FEA5B0B09F1010900F0CC81B7
:104020005FEACB70F6D0DEF8000009F00F06D0F89A
:104030001018D0F8342800EB4913F240D201D2B264
:10404000D3F80839114301EA0304039DE1074FEA5D
:104050004918059600F0DD80049B0127596B07FA8B
:1040600006F29143596305EB08018F609EF8061034
:1040700001290AD109EBC9010EEB8101D1E907231E
:10408000B9F1000F1A440A621BD0DEF8E0645FEA5F
:10409000096045D096F89C02032840F0BA80D6F813
:1040A000B8024269002A00F0B4800020C6F8D402A9
:1040B0005FFA89F13046904741F6287EC2F2000E41
:1040C000A7E0DEF8241049BB016C43F20A02C4F6F3
:1040D0005472914203D9D0F8001B00291ED400214C
:1040E000C0F8101BD0F8101B41F40021C0F8101BC1
:1040F000D0F8101B41F01801C0F8101BD0F8101BAD
:1041000041F0C041C0F8101B0EF29C41C0F8141BD6
:10411000D0F8001B41F08021C0F8001BDEF8E064FD
:10412000D6F8940202286DD1B069318C884218D932
:10413000421A706AB2614318D6F8C8024FF4807709
:10414000014642628279736221F8147F002703627C
:10415000012A876204BF03630122006802F0FAFEAD
:1041600036E04FF000031ED1716981421BD3D6F8AF
:104170009802814217D2D6F8C8024FF480720146E5
:1041800021F8142F827903624362012A836204BFFB
:1041900003630122006802F0DDFED6F8C832002772
:1041A000C6F8987217E096F89C020022032807D1FF
:1041B000D6F8B802C16819B13046C6F8D42288478B
:1041C000D6F8C802802102F043FE0520C6F894020A
:1041D000D6F8C832002703F51571C3F86072C3F82A
:1041E00064729A79C3F86872A3F854721868012A45
:1041F00004BFC3F87072012202F0ACFE41F6287EC3
:10420000C2F2000E96F8A00200281CBF002086F81B
:10421000A002200742BF05EB080008218160E006EC
:1042200042BF05EB080010218160600642BF05EB2C
:10423000080040218160A0072CD50698494603F06C
:104240000DF841F6287EC2F2000E09EBC9000EEB14
:10425000800111F8170F012818D1DEF8E0040023BF
:10426000D0F8D4220B7000EB8202D2F8B8226AB1E7
:1042700090F89C12032909D1126A3AB15FFA89F1C8
:10428000904741F6287EC2F2000E00BF05EB080001
:104290000221816020067FF5BDAE09EBC9000EEB5F
:1042A0008005AC465CF8241FCDF81CC05CF8047F88
:1042B000B942FFF4AFAE2B4653F81C6FDEF800A0F6
:1042C0000893CB1BB34238BF1E4608EB0A03D3F852
:1042D00018490336A4B2B4EB960F04D25546B9423E
:1042E0003FF698AE8EE69EF80620DDF81C80CDF8ED
:1042F00004B003F5106005F1200B0AF580564FEA73
:104300000934CDF808A00EE0DCF800700AEB0301D8
:104310001F44CBF80010CCF800708169033389B2D8
:10432000B1EB930F40D3D8F80010B9423ED9089BA7
:10433000C91B1B68994238BF0B46DBF800A0002A56
:10434000E2D199B20029DFD003314FF0FF3707EBFC
:104350009107032F574612D38F0827F0030E5746B5
:10436000D7F80080BEF1040E44F806807D68A551A0
:10437000BD68A551FD6807F11007A551F0D1C1F343
:10438000810141F6287EDDF81C800029C2F2000E72
:10439000BAD03D6801293551B6D07D680229355122
:1043A0001CBFB9683151AFE7D8F80010DDE901B59D
:1043B000B9423FF62FAE25E6DEF80000DDF810909A
:1043C00041698269DDF818801140B1F1FF3F1BDCC3
:1043D000D9F8041021F00101C9F804109EF8CC149A
:1043E000012903D100218EF8CC1409E0DEF8E01495
:1043F00091F89C22042A04BF91F89D2281F89C2206
:10440000416901F00041416141698269114009053A
:1044100025D5D9F80810C9071DD0DEF8E01491F8A9
:104420009C22042A1CBF91F89C2281F89D22042220
:1044300081F89C22D0F8001E41F00101C0F8001E56
:104440009EF80B1039B14EF61051CEF200010A68F9
:1044500042F006020A60416901F40061416141696C
:1044600082691140C90440F11F81D9F8041021F07C
:104470000101C9F80410102102F0F0FE41F6287E77
:10448000C2F2000E9EF80400010600F0B480C1B232
:10449000042900F0030001D2002166E06FF0600201
:1044A00002EA411200234FF67F37002108EB030692
:1044B000C6F80879D6F80059803325F40015C6F8F7
:1044C0000059C6F8087BD6F8005B9A4225F400151F
:1044D000C6F8005BD6F8005B01F1040145F0006509
:1044E000C6F8005BC6F82879D6F8205925F40015DF
:1044F000C6F82059C6F8287BD6F8205B25F40015AD
:10450000C6F8205BD6F8205B45F00065C6F8205B56
:10451000C6F84879D6F8405925F40015C6F8405930
:10452000C6F8487BD6F8405B25F40015C6F8405B1A
:10453000D6F8405B45F00065C6F8405BC6F8687980
:10454000D6F8605925F40015C6F86059C6F8687B9E
:10455000D6F8605B25F40015C6F8605BD6F8605BA2
:1045600045F00065C6F8605BA0D1002843D008F58F
:10457000106202EB41134FF67F364F019E60D55912
:1045800008F5306325F4001503EB4111D5518E6019
:10459000D959012821F40011D951D95941F00061AC
:1045A000D95128D007F120015518AE60555802287E
:1045B00025F40015555003EB0105AE605E5826F456
:1045C00000165E505E5846F000665E5013D007F14C
:1045D000400011184FF67F378F60115821F40011F9
:1045E000115019188F60195821F4001119501958D9
:1045F00041F000611950D9F81C0040F00110C9F8D1
:104600001C009EF80F0040B1D9F8840040F00B0068
:10461000C9F8840009F1440008E0D9F8140042F216
:104620002B010843C9F8140009F11000016843F296
:104630000A0341F00B010160D9F80000C4F654737D
:1046400020F4FE60C9F80000DEF800009EF80610B5
:10465000026C9A4203D9D0F8002B002A20D4002201
:10466000C0F8102BD0F8102B012942F40022C0F81A
:10467000102BD0F8102B42F01802C0F8102BD0F8F5
:10468000102B42F0C042C0F8102B09D10EF29C4111
:10469000C0F8141BD0F8001B41F08021C0F8001BAB
:1046A000416901F480514161416982691140890485
:1046B00040F1E880D0F8001940F2FF729143C0F851
:1046C0000019D0F8041841F48071C0F80418D0F82B
:1046D000081801F0060289074FF0020158BF0F21A8
:1046E000002A08BF114602298EF8071012D140F2A5
:1046F0001C01C2F20001096845F24032CFF6277270
:1047000043F200530A44C0F20C039A420FD24FF412
:1047100070517AE0C268002922F47052C260C26807
:1047200042F41052C26078D072B600BFFEE741F684
:104730004062CFF61B7244F240230A44C0F20F03DA
:104740009A4202D24FF460515FE0A1F5740244F640
:104750008073A2F51052C0F212039A4202D24FF4B3
:10476000505152E0A1F183724DF22063A2F5E7426D
:10477000C0F213039A4202D24FF4405145E04BF28B
:104780006062CFF6E5624EF260330A44C0F216036F
:104790009A4202D24FF4305137E04DF20032CFF658
:1047A000CE6247F240730A44C0F21B039A4202D21F
:1047B0004FF4205129E045F6C032CFF6B36249F2FA
:1047C000C0130A44C0F221039A4202D24FF410519E
:1047D0001BE0A1F1B77247F22053A2F55852C0F284
:1047E00038039A4202D24FF400510EE045F2E04203
:1047F000CFF6596249F6E0430A44C0F241034FF450
:10480000C0519A4238BF4FF4E051C26822F470524E
:10481000C260C2681143C1600121DEF8E054012486
:104820002974002185F89C42C5F89412D5F8B80285
:104830006960C5F8A41285F8A01218B142680AB1DF
:1048400028469047D5F8C802002100224023402680
:1048500002F09CFAD5F8C80280210022402385F896
:104860006341A5F8606102F091FA41F6287EC2F238
:10487000000EDEF8000085F823402E84416901F423
:1048800000514161416982691140090716D5DEF87E
:10489000E01491F89C22032A0CD1D1F8B8224AB135
:1048A000D2693AB10846904741F6287EC2F2000E1E
:1048B000DEF80000416901F0080141614169826947
:1048C000114009062ED5D8F8181021F08001C8F83B
:1048D00018109EF80410022924D30EF27B2401251F
:1048E00003E000BF01358D421AD214F8240B0128D1
:1048F000F8D105F00F0000EBC0000EEB8002280697
:10490000DEF8000002F1140158BF02F5157102F043
:1049100029FC41F6287EC2F2000E9EF80410E1E761
:10492000DEF80000416982691140C90230D59EF865
:104930000410022928D30EF13B0408F51265012664
:10494000012705E0013724348F4205F1200519D2F3
:1049500028686278012AF5D1B0F1FF3FF2DC07F058
:104960000F0000EBC0000EEB8001DEF800001431F8
:10497000267002F0F7FB41F6287EC2F2000E9EF888
:104980000410DFE7DEF80000416901F480114161A5
:10499000416982691140890232D59EF80420022AB9
:1049A0002AD3DEF8D414013A0EF51F7308F53267E6
:1049B000012604E02433013A07F120071CD03D68AA
:1049C0001C78012CF6D1B5F1FF3FF3DC81EA1545E7
:1049D000ED07EFD103F8016CD8F8185045F08005C9
:1049E000C8F81850D8F814502D06E3D4D9F804109C
:1049F00041F40071C9F80410416901F400114161EA
:104A0000416982691140490003D5416901F0804143
:104A10004161416982691140490713D544686107C2
:104A20000DD5DEF8E024012182F89C12D2F8B812EC
:104A300029B14B6811791046754698472868416836
:104A40002143416009B0BDE8F08F000070470000CD
:104A50002DE9F04FEDB00446D0F8AC0111B90028B3
:104A600040F05386399438B100291CBFD4F898011E
:104A70005FEAD00B40F04C86D4F8A4110029084618
:104A8000019100F042863AA828300090A068D4E94D
:104A900000173590E068D4E92E9A3890E06A002338
:104AA0002E90A06A0E90606D1990206D2B90E06F93
:104AB0001690A06F1B90D4E928061590606B369075
:104AC000206B3290E06D2D90A06D2A90D4F8840078
:104AD0002390D4F880001190D4F8AC000C90D4F856
:104AE000A8000F906069379020693390E06B349094
:104AF000A06B3190606E2890206E2990D4F88C00C5
:104B00002190D4F888001F90D4F8B4001090D4F805
:104B1000B0000D90E0692790A0692490606C2C9003
:104B2000206C2290E06E2090A06E1E90D4E9240BA1
:104B30001A90606A2F90206A3090E06C2590A06CEB
:104B40002690606F1C90206F1D90D4F89C001790E9
:104B5000D4F898001890D4E93002CDE90A2000BFBB
:104B60002E98199A784050400E9A09932B9B0891E1
:104B700051401B9A59405140169A14965040464055
:104B80001598279A81EA000C2298249907974840A3
:104B90001E991A9F48402C9978405140209A80EAEB
:104BA0000907514081EA0B01700081EA0A0540EAD9
:104BB000DC714FEA4C0040EAD670A04687EA000458
:104BC00085EA01000A99029081EA00030B98CDE979
:104BD000045680EA0405C8E93053259A2F9B0394B4
:104BE00082EA03051C9A0D9C5540179ACDF848A0FF
:104BF000554085EA01082699309ACDF84CB081EAF3
:104C000002051D99DDF830B04D401899CDF8189087
:104C10004D4085EA0006319833991F9D80EA0102D4
:104C200029983799424034986A4080EA01032898CD
:104C300010994340219882EA040A434083EA010222
:104C40004FEA4A0444EAD27484EA0C0E54000599EF
:104C500044EADA7484EA0105049932984C0044EA83
:104C6000D7737F0047EAD17C3599369C41402A981A
:104C70004140389844402D9844402398444011982E
:104C800084EA0B0441400F986700414047EAD1791C
:104C90008CEA010C490041EAD47186EA01004FEA2E
:104CA000480183EA040788EA090441EAD6797600D4
:104CB00046EAD87686EA0A0389EA0201029E2F9A1A
:104CC000DDF818A072400A92259A8AEA030A724017
:104CD0000B921C9A72402592179A56402F96039E6B
:104CE000309A72400592269A724017921D9A72402D
:104CF0002692189A56403096079E84EA06022E9E07
:104D0000049284EA0602199E079284EA0602169E1D
:104D1000199284EA0602149E1D9266402E96089E01
:104D200080EA06020E9E149280EA06022B9E1692DC
:104D300080EA06021B9E189280EA0602159E1C92CB
:104D400070402B90389885EA000836986840159096
:104D50002D9868401B90239868402D9085EA0B00A1
:104D6000389035988EEA0005329880EA0E000E9051
:104D70002A9880EA0E002390119880EA0E00329063
:104D80000F9880EA0E003690379887EA000E349824
:104D900087EA000B289878402890219878402A903C
:104DA00010987840379033981E9F8CEA000931980C
:104DB0008CEA0006299880EA0C0021901F9880EA6E
:104DC0000C0033900D9880EA0C003590279883EA08
:104DD000070C81EA00022C981A9F81EA00042098AF
:104DE0005F4048402C901398299748403190129882
:104DF000149F484034902498229958405940399B38
:104E00001F60399B049F5F60399B9D60399BC3F88D
:104E10000C80DDF8E480C8E90602059808F1340248
:104E2000C8F820000A98C8E91014C8F82400169899
:104E3000A021C8F828000798C8E9049EC8F82C00EB
:104E40000E98C8F83000159882E841081798C8F8FD
:104E500048000B98C8F84C001898C8F850001998EA
:104E6000C8F854002398C8F858001B98C8F85C008C
:104E70002198C8F860002898C8E9190C2C98C8F83F
:104E80006C002698C8F870002598C8F874001C9823
:104E9000C8F878001D98C8F87C003298C8F88000DF
:104EA0002D98C8F884003398C8F888002A98C8F864
:104EB0008C002998C8F890003198C8F89400309870
:104EC000C8F898002F98C8F89C002B98C8F8A00044
:104ED0002E98C8F8A4003698C8F8A8003898C8F8E2
:104EE000AC003598C8F8B0003798C8E92D0A349856
:104EF000C8F8BC000098FCF706FC98E88F000DF19C
:104F0000E80CD8F81C408CE88F00D8E90801D8E9F3
:104F100005654EF2382BCDE94140439100204FF01A
:104F2000010E1821C0F6000BCDE93F65389181468E
:104F300000EB40004CF6CD4100EB4E00CCF6CC41EE
:104F4000A0FB013727F0030303EB9703C21A02EB20
:104F5000420000EB4900A0FB017626F0030707EBB7
:104F60009607C11B01EB41000B46369100EB420056
:104F7000342100FB01F73F0A07EB8707C01B74468B
:104F80009646C2B201463790500050FA81F043F283
:104F9000343100EB4300C3F23331A0FB017A09EB5B
:104FA00089070BEB870308EBC70153F8243015463C
:104FB000339201EBC40251F83410D2F8048003F0AC
:104FC0003F02C2F1200B08FA02F321FA0BF646EA7F
:104FD000030CB2F12006C2F1400358BF01FA06FCEF
:104FE00001FA02F6C3F1200221FA03F108FA02F2F3
:104FF00041EA020158BF0026BBF1000F58BF28FA52
:105000000BF141EA06023AA901EBC70646F8342043
:105010000AEB8A02A0EB020A0AEB4A0000EB450009
:105020004FF0340200FB02F24FEA122202EB82023E
:10503000A0EB020B5FFA8BF04FEA400252FA8BF2C0
:10504000329002EB4A0043F23432C3F233323590ED
:10505000A0FB022028FA03F2349058BF002206EB8E
:10506000C40142EA0C0239984A600EEB8E0100EB53
:10507000C1024EF23820C0F6000000EB810656F85F
:10508000296002EBC90352F839205B6806F03F063D
:10509000C6F1200703FA06F822FA07F040EA0800F2
:1050A000B6F12005DDF8E48058BF02FA05F002FAF7
:1050B00006F5C6F14006C6F1200422FA06F203FA0C
:1050C00004F442EA0402F446CE4658BF0025002FFD
:1050D00058BF23FA07F223FA06F30DF1E80958BF87
:1050E00000232A4309EBC101184301EBCE0341F829
:1050F0003E20DDF8D8E058604EF238230EEB8E00EB
:10510000C0F6000303EB800308EBC00153F82C301A
:1051100001EBCC0251F83C10526803F03F03C3F19D
:10512000200602FA03F721FA06F52F43B3F1200512
:1051300058BF01FA05F701FA03F5C3F14003C3F1C3
:10514000200421FA03F102FA04F441EA040158BFF1
:105150000025002E58BF22FA06F122FA03F258BFAA
:105160000022294309EBC000DDF8CC903A4300EB64
:10517000CC0340F83C1037995A604FEA89004EF250
:10518000382350FA81F0C0F6000303EB800308EBEC
:10519000C00153F82E3001EBCE0251F83E10526898
:1051A00003F03F03C3F1200602FA03F721FA06F5E4
:1051B0002F43B3F1200558BF01FA05F701FA03F5B3
:1051C000C3F14003C3F1200421FA03F102FA04F40D
:1051D00041EA040158BF0025002E58BF22FA06F10B
:1051E00022FA03F20DF1E80C58BF00220CEBC000CC
:1051F0003A4300EBCE0329435A604EF2382340F87D
:105200003E100AEB8A00C0F6000303EB800308EBB4
:10521000C00153F8293001EBC90251F83910526826
:1052200003F03F03C3F1200602FA03F721FA06F563
:105230002F43B3F12005DDF8C8E04C4658BF01FA12
:1052400005F701FA03F5C3F14003C3F1200421FA85
:1052500003F102FA04F441EA040158BF0025002ECC
:1052600058BF22FA06F122FA03F241EA05010CEBDB
:10527000C00058BF002200EBC90340F839104FEAC4
:105280008E0050FA8BF04EF2382B3A43C0F6000BEA
:105290005A600BEB800308EBC00153F82A3001EB96
:1052A000CA0251F83A10526803F03F03C3F12006D6
:1052B00002FA03F721FA06F52F43B3F1200558BF90
:1052C00001FA05F701FA03F5C3F14003C3F1200425
:1052D00021FA03F102FA04F441EA040158BF00255F
:1052E000002E58BF22FA06F122FA03F258BF00221C
:1052F00029430CEBC0003A4340F83A1000EBCA00D7
:10530000426034983899359A00EB80000639A2EB58
:1053100000007FF40BAE40463AA9C822FCF79FF983
:10532000D8E92402D8E93034D8F81C70D8E90C59EF
:10533000D8E9181C3297D8F854E0D8E9007A23EA63
:10534000000821EA050620EA010B81EA08013391F1
:1053500027EA030148408BEA0501359125EA070158
:105360005940249022EA0C0030912AEA040151406D
:1053700080EA0900279124EA0201389029EA0A000C
:1053800081EA0C01604037912CEA09012F9039988D
:10539000069139990897D0F8B400329FD1F884105B
:1053A00027EA0002399B4A402C9221EA0E0220EAA9
:1053B0000101DB6C81EA0E0134912EEA0301794090
:1053C0002E9182EA0301369123EA0701399A399F27
:1053D0000596399E9269D7F8B070D6F8806022EAB7
:1053E0000704399B84EA06052295399D1B6DAD6C37
:1053F00026EA030427EA06065E40AB4383EA020E70
:1054000025EA02027A40484084EA05032692259064
:105410003998399A3293399BC0683999D2F8A420C7
:105420003196D3F89C30399EC96E20EA02075F405E
:10543000F66B209723EA010722EA03034B40B143AE
:105440004140199187EA06012D913999399F26EA41
:105450000000399E28938968399BD7F8A070D6F848
:105460009860399C9B6E21EA07057540A46B1E95D8
:1054700026EA030527EA06065E40A3434B40504058
:105480002B9385EA040324EA01011C903998399A88
:105490002A937940399B1D91406A3999D2F8BC20F2
:1054A0002996D3F88C30399EC96D20EA02075F40F7
:1054B000F66A139723EA010722EA03034B40B1433C
:1054C0004140169187EA060123913999399F26EACE
:1054D0000000399E2193096A399BD7F8B870D6F835
:1054E0008860399C9B6D21EA07057540A46A1A956E
:1054F00026EA030527EA06065E40A3435040399A90
:105500004B4024EA0101179039981B937940D2F857
:10551000AC30399A1891406939991F96D26F399EEB
:10552000496F20EA03075740766C129722EA010779
:1055300023EA020282EA0109B1434140149187EA59
:1055400006083999399F26EA0000399A399E85EA7A
:10555000040B0969D7F8A870399C126FB66F21EA5D
:105560000705246CCDF81CA085EA060A26EA020588
:1055700027EA060686EA020CA2434A4024EA010111
:1055800065404F40744683EA000EDDE938101592FD
:10559000C16039983599369A8160399837992D9B31
:1055A000416139983399CDF844B001613998279910
:1055B000149EC16139982499CDF840908161399841
:1055C0003099CDE90AE7016239982F990E9441622A
:1055D00039982E9984623998399CC16239983299E8
:1055E0000F95016339983199426339982C9A8163F8
:1055F00039983499CDF83080C16339982299CDF823
:1056000034C0016439982B9942643998269A82648F
:105610003998259AC2643998289A01653998199958
:10562000416539982A99816539982999C3653998CE
:10563000099B016639981E9942663998139A8166CA
:1056400039982099C16639981D99016739981C9934
:10565000416739981B99816739981699C1673998BC
:105660002399C0F880B039989346C0F884103998CF
:105670001F99C0F8881039982199C0F88C10399872
:105680001A99C0F8901039981599C0F89420399853
:10569000189AC0F898203998179AC0F89C20399821
:1056A000069AC0F8A01039981299C0F8A4603998E9
:1056B000C0F8A8503998C0F8AC803998C0F8B0C08C
:1056C0003998C0F8B4903998D146C0F8B8A0399844
:1056D0008A46C0F8BC1039984EF27811C0E9307E85
:1056E000C0F6000101EBC30051F83310059F40687C
:1056F0007940089F50407940079F01334740019807
:105700006760834221607FF42BAA6DB0BDE8F08F03
:10571000D4F89C014FF6FC7CABF10108C1F6FF7C8C
:10572000C608B8F1030F0BF00309A64601D2002307
:1057300037E03AA80BEA0C0A00F1100401F110035B
:10574000002000BF0746B04207F1010032BF53E915
:10575000042500220025B04244E9042500F101009F
:1057600032BF53E9022500220025B04244E9022558
:1057700000F1010032BFD3E9002500220025B0422C
:10578000C4E9002500F1010032BFD3E9022500225F
:105790000025C4E902252034504503F12003D1D16E
:1057A0003B1DB9F1000F35D0B34205D201EBC30266
:1057B00051F83300526801E0002000223AAC04EBBB
:1057C000C305B9F1010F44F833006A6022D0581CB8
:1057D000B04205D201EBC00551F830206D6801E000
:1057E0000022002504EBC007B9F1020F44F8302075
:1057F0007D600FD0981CB04205D201EBC00251F879
:105800003010526801E00021002204EBC00344F88C
:1058100030105A60B8F1030FCDF8E09001D20021AA
:1058200032E03AA80CEA0B0CAEF12003A0F12007FD
:10583000002100BF57F8209F53F8206F07F1040E96
:105840009EE8204CD3E90104D3E90328684086EAA6
:105850000905C3E9005082EA0B0084EA0A029A6053
:105860007A695C69D86084EA020088EA0E02C3E9BA
:105870000420D7E90602D3E9065604317240684095
:105880008C459861DA61D5D1389A399C002A3FF469
:10589000F3A80DF1E80E0EEBC10004EBC1075EF8B2
:1058A000313040687E6854F8315070406B40012AB6
:1058B00044F8313078603FF4DFA8481C0EEBC00399
:1058C00004EBC0065EF830C05B68756854F8307051
:1058D0006B4087EA0C07022A44F8307073603FF48B
:1058E000CBA8881C0EEBC00104EBC0035EF830208F
:1058F00049685F6854F830607940724044F830205D
:105900005960FFF7B9B80000002808BF70472DE9BB
:10591000F041ECB08846002955D06D460646284631
:105920004FF4CC711746FBF7EEFEC82066901820A6
:10593000699001206B9004208DF89401F8082021D3
:105940006A90306868917168B26833901F20A8240B
:1059500034918DF8D80005F1D9009A21679405F1AA
:10596000CC073592FBF7ADFE80208DF873012846F9
:1059700039463294FFF76CF8679D6A9A0020AA4274
:1059800032906B9019D96E46404631462A46FBF755
:1059900021FE00BF30460021FFF75AF86A9C679F3E
:1059A000621BBA4208EB05000AD931463A46FBF7BA
:1059B00011FE3D44A542EDD305E06946404600E0B6
:1059C0006946FBF707FE6CB0BDE8F0417047000088
:1059D000B0B581B043F2104CC2F2000CDCF80030DC
:1059E00040F21C04C2F20004A2EB030EDCF800201B
:1059F00023680EF10104C3F3CB33634342F20C4E30
:105A00000093C2F2000EDEF8003002E0009D013D7E
:105A100000959D6805402D1AB5FA85F56D098D42F2
:105A200009D0DCF80050AD1AA54207D2009D002D28
:105A3000ECD10024EDE7002001B0B0BD586820F0A3
:105A4000E0005860DEF80400B0F5827F0BD1DEF88C
:105A50000800B0F5004F02D0B0F5806F03D1186890
:105A600020F040001860DEF82800B0F5005F07D194
:105A7000186820F400501860186840F4005018604E
:105A800001208EF8510000208EF85000032001B054
:105A9000B0BD00007047000043F21040C2F20000A9
:105AA00001680131016070474EF68850CEF2000067
:105AB000016841F4700101607047000042F26440E7
:105AC000C2F200000021FBF7DDBF000042F2AC4053
:105AD000C2F200000421FBF7D5BF000042F2F440FF
